{
  "contractName": "LVR",
  "abi": [
    {
      "inputs": [],
      "stateMutability": "nonpayable",
      "type": "constructor"
    },
    {
      "anonymous": false,
      "inputs": [
        {
          "indexed": true,
          "internalType": "address",
          "name": "owner",
          "type": "address"
        },
        {
          "indexed": true,
          "internalType": "address",
          "name": "approved",
          "type": "address"
        },
        {
          "indexed": true,
          "internalType": "uint256",
          "name": "tokenId",
          "type": "uint256"
        }
      ],
      "name": "Approval",
      "type": "event"
    },
    {
      "anonymous": false,
      "inputs": [
        {
          "indexed": true,
          "internalType": "address",
          "name": "owner",
          "type": "address"
        },
        {
          "indexed": true,
          "internalType": "address",
          "name": "operator",
          "type": "address"
        },
        {
          "indexed": false,
          "internalType": "bool",
          "name": "approved",
          "type": "bool"
        }
      ],
      "name": "ApprovalForAll",
      "type": "event"
    },
    {
      "anonymous": false,
      "inputs": [
        {
          "indexed": true,
          "internalType": "address",
          "name": "owner",
          "type": "address"
        },
        {
          "indexed": true,
          "internalType": "address",
          "name": "from",
          "type": "address"
        },
        {
          "indexed": false,
          "internalType": "uint256",
          "name": "tokenid",
          "type": "uint256"
        }
      ],
      "name": "Bought",
      "type": "event"
    },
    {
      "anonymous": false,
      "inputs": [
        {
          "indexed": true,
          "internalType": "address",
          "name": "previousOwner",
          "type": "address"
        },
        {
          "indexed": true,
          "internalType": "address",
          "name": "newOwner",
          "type": "address"
        }
      ],
      "name": "OwnershipTransferred",
      "type": "event"
    },
    {
      "anonymous": false,
      "inputs": [
        {
          "indexed": true,
          "internalType": "address",
          "name": "owner",
          "type": "address"
        },
        {
          "indexed": true,
          "internalType": "address",
          "name": "to",
          "type": "address"
        },
        {
          "indexed": false,
          "internalType": "uint256",
          "name": "tokenid",
          "type": "uint256"
        }
      ],
      "name": "Sold",
      "type": "event"
    },
    {
      "anonymous": false,
      "inputs": [
        {
          "indexed": true,
          "internalType": "address",
          "name": "from",
          "type": "address"
        },
        {
          "indexed": true,
          "internalType": "address",
          "name": "to",
          "type": "address"
        },
        {
          "indexed": true,
          "internalType": "uint256",
          "name": "tokenId",
          "type": "uint256"
        }
      ],
      "name": "Transfer",
      "type": "event"
    },
    {
      "inputs": [
        {
          "internalType": "address",
          "name": "to",
          "type": "address"
        },
        {
          "internalType": "uint256",
          "name": "tokenId",
          "type": "uint256"
        }
      ],
      "name": "approve",
      "outputs": [],
      "stateMutability": "nonpayable",
      "type": "function"
    },
    {
      "inputs": [
        {
          "internalType": "address",
          "name": "owner",
          "type": "address"
        }
      ],
      "name": "balanceOf",
      "outputs": [
        {
          "internalType": "uint256",
          "name": "",
          "type": "uint256"
        }
      ],
      "stateMutability": "view",
      "type": "function",
      "constant": true
    },
    {
      "inputs": [],
      "name": "baseURI",
      "outputs": [
        {
          "internalType": "string",
          "name": "",
          "type": "string"
        }
      ],
      "stateMutability": "view",
      "type": "function",
      "constant": true
    },
    {
      "inputs": [
        {
          "internalType": "uint256",
          "name": "tokenId",
          "type": "uint256"
        }
      ],
      "name": "getApproved",
      "outputs": [
        {
          "internalType": "address",
          "name": "",
          "type": "address"
        }
      ],
      "stateMutability": "view",
      "type": "function",
      "constant": true
    },
    {
      "inputs": [
        {
          "internalType": "address",
          "name": "owner",
          "type": "address"
        },
        {
          "internalType": "address",
          "name": "operator",
          "type": "address"
        }
      ],
      "name": "isApprovedForAll",
      "outputs": [
        {
          "internalType": "bool",
          "name": "",
          "type": "bool"
        }
      ],
      "stateMutability": "view",
      "type": "function",
      "constant": true
    },
    {
      "inputs": [],
      "name": "name",
      "outputs": [
        {
          "internalType": "string",
          "name": "",
          "type": "string"
        }
      ],
      "stateMutability": "view",
      "type": "function",
      "constant": true
    },
    {
      "inputs": [],
      "name": "owner",
      "outputs": [
        {
          "internalType": "address",
          "name": "",
          "type": "address"
        }
      ],
      "stateMutability": "view",
      "type": "function",
      "constant": true
    },
    {
      "inputs": [
        {
          "internalType": "uint256",
          "name": "tokenId",
          "type": "uint256"
        }
      ],
      "name": "ownerOf",
      "outputs": [
        {
          "internalType": "address",
          "name": "",
          "type": "address"
        }
      ],
      "stateMutability": "view",
      "type": "function",
      "constant": true
    },
    {
      "inputs": [],
      "name": "renounceOwnership",
      "outputs": [],
      "stateMutability": "nonpayable",
      "type": "function"
    },
    {
      "inputs": [
        {
          "internalType": "address",
          "name": "from",
          "type": "address"
        },
        {
          "internalType": "address",
          "name": "to",
          "type": "address"
        },
        {
          "internalType": "uint256",
          "name": "tokenId",
          "type": "uint256"
        }
      ],
      "name": "safeTransferFrom",
      "outputs": [],
      "stateMutability": "nonpayable",
      "type": "function"
    },
    {
      "inputs": [
        {
          "internalType": "address",
          "name": "from",
          "type": "address"
        },
        {
          "internalType": "address",
          "name": "to",
          "type": "address"
        },
        {
          "internalType": "uint256",
          "name": "tokenId",
          "type": "uint256"
        },
        {
          "internalType": "bytes",
          "name": "_data",
          "type": "bytes"
        }
      ],
      "name": "safeTransferFrom",
      "outputs": [],
      "stateMutability": "nonpayable",
      "type": "function"
    },
    {
      "inputs": [
        {
          "internalType": "address",
          "name": "operator",
          "type": "address"
        },
        {
          "internalType": "bool",
          "name": "approved",
          "type": "bool"
        }
      ],
      "name": "setApprovalForAll",
      "outputs": [],
      "stateMutability": "nonpayable",
      "type": "function"
    },
    {
      "inputs": [
        {
          "internalType": "bytes4",
          "name": "interfaceId",
          "type": "bytes4"
        }
      ],
      "name": "supportsInterface",
      "outputs": [
        {
          "internalType": "bool",
          "name": "",
          "type": "bool"
        }
      ],
      "stateMutability": "view",
      "type": "function",
      "constant": true
    },
    {
      "inputs": [],
      "name": "symbol",
      "outputs": [
        {
          "internalType": "string",
          "name": "",
          "type": "string"
        }
      ],
      "stateMutability": "view",
      "type": "function",
      "constant": true
    },
    {
      "inputs": [
        {
          "internalType": "uint256",
          "name": "index",
          "type": "uint256"
        }
      ],
      "name": "tokenByIndex",
      "outputs": [
        {
          "internalType": "uint256",
          "name": "",
          "type": "uint256"
        }
      ],
      "stateMutability": "view",
      "type": "function",
      "constant": true
    },
    {
      "inputs": [
        {
          "internalType": "address",
          "name": "owner",
          "type": "address"
        },
        {
          "internalType": "uint256",
          "name": "index",
          "type": "uint256"
        }
      ],
      "name": "tokenOfOwnerByIndex",
      "outputs": [
        {
          "internalType": "uint256",
          "name": "",
          "type": "uint256"
        }
      ],
      "stateMutability": "view",
      "type": "function",
      "constant": true
    },
    {
      "inputs": [
        {
          "internalType": "uint256",
          "name": "tokenId",
          "type": "uint256"
        }
      ],
      "name": "tokenURI",
      "outputs": [
        {
          "internalType": "string",
          "name": "",
          "type": "string"
        }
      ],
      "stateMutability": "view",
      "type": "function",
      "constant": true
    },
    {
      "inputs": [],
      "name": "totalSupply",
      "outputs": [
        {
          "internalType": "uint256",
          "name": "",
          "type": "uint256"
        }
      ],
      "stateMutability": "view",
      "type": "function",
      "constant": true
    },
    {
      "inputs": [
        {
          "internalType": "address",
          "name": "from",
          "type": "address"
        },
        {
          "internalType": "address",
          "name": "to",
          "type": "address"
        },
        {
          "internalType": "uint256",
          "name": "tokenId",
          "type": "uint256"
        }
      ],
      "name": "transferFrom",
      "outputs": [],
      "stateMutability": "nonpayable",
      "type": "function"
    },
    {
      "inputs": [
        {
          "internalType": "address",
          "name": "newOwner",
          "type": "address"
        }
      ],
      "name": "transferOwnership",
      "outputs": [],
      "stateMutability": "nonpayable",
      "type": "function"
    },
    {
      "inputs": [],
      "name": "getAllOnSale",
      "outputs": [
        {
          "components": [
            {
              "internalType": "uint256",
              "name": "id",
              "type": "uint256"
            },
            {
              "internalType": "uint256",
              "name": "price",
              "type": "uint256"
            },
            {
              "internalType": "string",
              "name": "name",
              "type": "string"
            },
            {
              "internalType": "string",
              "name": "uri",
              "type": "string"
            }
          ],
          "internalType": "struct LVR.TokenMeta[]",
          "name": "",
          "type": "tuple[]"
        }
      ],
      "stateMutability": "view",
      "type": "function",
      "constant": true
    },
    {
      "inputs": [
        {
          "internalType": "uint256",
          "name": "_tokenId",
          "type": "uint256"
        },
        {
          "internalType": "bool",
          "name": "_sale",
          "type": "bool"
        },
        {
          "internalType": "uint256",
          "name": "_price",
          "type": "uint256"
        }
      ],
      "name": "setTokenSale",
      "outputs": [],
      "stateMutability": "nonpayable",
      "type": "function"
    },
    {
      "inputs": [
        {
          "internalType": "uint256",
          "name": "_tokenId",
          "type": "uint256"
        },
        {
          "internalType": "uint256",
          "name": "_price",
          "type": "uint256"
        }
      ],
      "name": "setTokenPrice",
      "outputs": [],
      "stateMutability": "nonpayable",
      "type": "function"
    },
    {
      "inputs": [
        {
          "internalType": "uint256",
          "name": "tokenId",
          "type": "uint256"
        }
      ],
      "name": "tokenPrice",
      "outputs": [
        {
          "internalType": "uint256",
          "name": "",
          "type": "uint256"
        }
      ],
      "stateMutability": "view",
      "type": "function",
      "constant": true
    },
    {
      "inputs": [
        {
          "internalType": "uint256",
          "name": "_tokenId",
          "type": "uint256"
        }
      ],
      "name": "tokenMeta",
      "outputs": [
        {
          "components": [
            {
              "internalType": "uint256",
              "name": "id",
              "type": "uint256"
            },
            {
              "internalType": "uint256",
              "name": "price",
              "type": "uint256"
            },
            {
              "internalType": "string",
              "name": "name",
              "type": "string"
            },
            {
              "internalType": "string",
              "name": "uri",
              "type": "string"
            }
          ],
          "internalType": "struct LVR.TokenMeta",
          "name": "",
          "type": "tuple"
        }
      ],
      "stateMutability": "view",
      "type": "function",
      "constant": true
    },
    {
      "inputs": [
        {
          "internalType": "uint256",
          "name": "_tokenId",
          "type": "uint256"
        }
      ],
      "name": "purchaseToken",
      "outputs": [],
      "stateMutability": "payable",
      "type": "function",
      "payable": true
    },
    {
      "inputs": [
        {
          "internalType": "address",
          "name": "_owner",
          "type": "address"
        },
        {
          "internalType": "string",
          "name": "_tokenURI",
          "type": "string"
        },
        {
          "internalType": "string",
          "name": "_name",
          "type": "string"
        },
        {
          "internalType": "uint256",
          "name": "_price",
          "type": "uint256"
        },
        {
          "internalType": "bool",
          "name": "_sale",
          "type": "bool"
        }
      ],
      "name": "mintCollectable",
      "outputs": [
        {
          "internalType": "uint256",
          "name": "",
          "type": "uint256"
        }
      ],
      "stateMutability": "nonpayable",
      "type": "function"
    }
  ],
  "bytecode": "0x60806040523480156200001157600080fd5b506040518060400160405280600381526020017f4c565200000000000000000000000000000000000000000000000000000000008152506040518060400160405280600381526020017f4c56520000000000000000000000000000000000000000000000000000000000815250620000966301ffc9a760e01b620001c960201b60201c565b8160069080519060200190620000ae929190620002da565b508060079080519060200190620000c7929190620002da565b50620000e06380ac58cd60e01b620001c960201b60201c565b620000f8635b5e139f60e01b620001c960201b60201c565b6200011063780e9d6360e01b620001c960201b60201c565b5050600062000124620002d260201b60201c565b905080600a60006101000a81548173ffffffffffffffffffffffffffffffffffffffff021916908373ffffffffffffffffffffffffffffffffffffffff1602179055508073ffffffffffffffffffffffffffffffffffffffff16600073ffffffffffffffffffffffffffffffffffffffff167f8be0079c531659141344cd1fd0a4f28419497f9722a3daafe3b4186f6b6457e060405160405180910390a35062000390565b63ffffffff60e01b817bffffffffffffffffffffffffffffffffffffffffffffffffffffffff1916141562000266576040517f08c379a000000000000000000000000000000000000000000000000000000000815260040180806020018281038252601c8152602001807f4552433136353a20696e76616c696420696e746572666163652069640000000081525060200191505060405180910390fd5b6001600080837bffffffffffffffffffffffffffffffffffffffffffffffffffffffff19167bffffffffffffffffffffffffffffffffffffffffffffffffffffffff1916815260200190815260200160002060006101000a81548160ff02191690831515021790555050565b600033905090565b828054600181600116156101000203166002900490600052602060002090601f0160209004810192826200031257600085556200035e565b82601f106200032d57805160ff19168380011785556200035e565b828001600101855582156200035e579182015b828111156200035d57825182559160200191906001019062000340565b5b5090506200036d919062000371565b5090565b5b808211156200038c57600081600090555060010162000372565b5090565b613ff980620003a06000396000f3fe60806040526004361061019c5760003560e01c80636c0360eb116100ec578063b88d4fde1161008a578063d4ddce8a11610064578063d4ddce8a146105f1578063e985e9c51461062e578063eb685c471461066b578063f2fde38b146106945761019c565b8063b88d4fde1461056f578063c2db2c4214610598578063c87b56dd146105b45761019c565b80638da5cb5b116100c65780638da5cb5b146104c557806390894559146104f057806395d89b411461051b578063a22cb465146105465761019c565b80636c0360eb1461044657806370a0823114610471578063715018a6146104ae5761019c565b806323b872dd1161015957806342842e0e1161013357806342842e0e1461037a5780634f6ccce7146103a35780636352211e146103e05780636387ede61461041d5761019c565b806323b872dd146102d75780632f745c591461030057806339b444361461033d5761019c565b806301ffc9a7146101a157806306fdde03146101de578063081812fc14610209578063095ea7b3146102465780630ae7a3101461026f57806318160ddd146102ac575b600080fd5b3480156101ad57600080fd5b506101c860048036038101906101c391906135d7565b6106bd565b6040516101d59190613a2e565b60405180910390f35b3480156101ea57600080fd5b506101f3610724565b6040516102009190613a49565b60405180910390f35b34801561021557600080fd5b50610230600480360381019061022b9190613600565b6107c6565b60405161023d91906139f1565b60405180910390f35b34801561025257600080fd5b5061026d6004803603810190610268919061359b565b610861565b005b34801561027b57600080fd5b5061029660048036038101906102919190613600565b6109a5565b6040516102a39190613acb565b60405180910390f35b3480156102b857600080fd5b506102c1610b3c565b6040516102ce9190613aed565b60405180910390f35b3480156102e357600080fd5b506102fe60048036038101906102f991906133ee565b610b4d565b005b34801561030c57600080fd5b506103276004803603810190610322919061359b565b610bc3565b6040516103349190613aed565b60405180910390f35b34801561034957600080fd5b50610364600480360381019061035f91906134f4565b610c1e565b6040516103719190613aed565b60405180910390f35b34801561038657600080fd5b506103a1600480360381019061039c91906133ee565b610cc0565b005b3480156103af57600080fd5b506103ca60048036038101906103c59190613600565b610ce0565b6040516103d79190613aed565b60405180910390f35b3480156103ec57600080fd5b5061040760048036038101906104029190613600565b610d03565b60405161041491906139f1565b60405180910390f35b34801561042957600080fd5b50610444600480360381019061043f9190613629565b610d3a565b005b34801561045257600080fd5b5061045b610dc9565b6040516104689190613a49565b60405180910390f35b34801561047d57600080fd5b5061049860048036038101906104939190613389565b610e6b565b6040516104a59190613aed565b60405180910390f35b3480156104ba57600080fd5b506104c3610f40565b005b3480156104d157600080fd5b506104da6110b0565b6040516104e791906139f1565b60405180910390f35b3480156104fc57600080fd5b506105056110da565b6040516105129190613a0c565b60405180910390f35b34801561052757600080fd5b50610530611330565b60405161053d9190613a49565b60405180910390f35b34801561055257600080fd5b5061056d600480360381019061056891906134b8565b6113d2565b005b34801561057b57600080fd5b506105966004803603810190610591919061343d565b611588565b005b6105b260048036038101906105ad9190613600565b611600565b005b3480156105c057600080fd5b506105db60048036038101906105d69190613600565b611801565b6040516105e89190613a49565b60405180910390f35b3480156105fd57600080fd5b5061061860048036038101906106139190613600565b611ad2565b6040516106259190613aed565b60405180910390f35b34801561063a57600080fd5b50610655600480360381019061065091906133b2565b611b3a565b6040516106629190613a2e565b60405180910390f35b34801561067757600080fd5b50610692600480360381019061068d9190613678565b611bce565b005b3480156106a057600080fd5b506106bb60048036038101906106b69190613389565b611c35565b005b6000806000837bffffffffffffffffffffffffffffffffffffffffffffffffffffffff19167bffffffffffffffffffffffffffffffffffffffffffffffffffffffff1916815260200190815260200160002060009054906101000a900460ff169050919050565b606060068054600181600116156101000203166002900480601f0160208091040260200160405190810160405280929190818152602001828054600181600116156101000203166002900480156107bc5780601f10610791576101008083540402835291602001916107bc565b820191906000526020600020905b81548152906001019060200180831161079f57829003601f168201915b5050505050905090565b60006107d182611e2a565b610826576040517f08c379a000000000000000000000000000000000000000000000000000000000815260040180806020018281038252602c815260200180613ec2602c913960400191505060405180910390fd5b6004600083815260200190815260200160002060009054906101000a900473ffffffffffffffffffffffffffffffffffffffff169050919050565b600061086c82610d03565b90508073ffffffffffffffffffffffffffffffffffffffff168373ffffffffffffffffffffffffffffffffffffffff1614156108f3576040517f08c379a0000000000000000000000000000000000000000000000000000000008152600401808060200182810382526021815260200180613f726021913960400191505060405180910390fd5b8073ffffffffffffffffffffffffffffffffffffffff16610912611e47565b73ffffffffffffffffffffffffffffffffffffffff16148061094157506109408161093b611e47565b611b3a565b5b610996576040517f08c379a0000000000000000000000000000000000000000000000000000000008152600401808060200182810382526038815260200180613e156038913960400191505060405180910390fd5b6109a08383611e4f565b505050565b6109ad613192565b6109b682611e2a565b6109bf57600080fd5b600c60008381526020019081526020016000206040518060800160405290816000820154815260200160018201548152602001600282018054600181600116156101000203166002900480601f016020809104026020016040519081016040528092919081815260200182805460018160011615610100020316600290048015610a8a5780601f10610a5f57610100808354040283529160200191610a8a565b820191906000526020600020905b815481529060010190602001808311610a6d57829003601f168201915b50505050508152602001600382018054600181600116156101000203166002900480601f016020809104026020016040519081016040528092919081815260200182805460018160011615610100020316600290048015610b2c5780601f10610b0157610100808354040283529160200191610b2c565b820191906000526020600020905b815481529060010190602001808311610b0f57829003601f168201915b5050505050815250509050919050565b6000610b486002611f08565b905090565b610b5e610b58611e47565b82611f1d565b610bb3576040517f08c379a0000000000000000000000000000000000000000000000000000000008152600401808060200182810382526031815260200180613f936031913960400191505060405180910390fd5b610bbe838383612011565b505050565b6000610c1682600160008673ffffffffffffffffffffffffffffffffffffffff1673ffffffffffffffffffffffffffffffffffffffff16815260200190815260200160002061225490919063ffffffff16565b905092915050565b6000808311610c2c57600080fd5b610c36600b61226e565b6000610c42600b612284565b9050610c4e8782612292565b610c588187612486565b60006040518060800160405280838152602001868152602001878152602001888152509050610c878282612510565b83600d600084815260200190815260200160002060006101000a81548160ff021916908315150217905550819250505095945050505050565b610cdb83838360405180602001604052806000815250611588565b505050565b600080610cf783600261258b90919063ffffffff16565b50905080915050919050565b6000610d3382604051806060016040528060298152602001613e776029913960026125b79092919063ffffffff16565b9050919050565b610d4383611e2a565b610d82576040517f08c379a0000000000000000000000000000000000000000000000000000000008152600401610d7990613aab565b60405180910390fd5b60008111610d8f57600080fd5b81600d600085815260200190815260200160002060006101000a81548160ff021916908315150217905550610dc48382611bce565b505050565b606060098054600181600116156101000203166002900480601f016020809104026020016040519081016040528092919081815260200182805460018160011615610100020316600290048015610e615780601f10610e3657610100808354040283529160200191610e61565b820191906000526020600020905b815481529060010190602001808311610e4457829003601f168201915b5050505050905090565b60008073ffffffffffffffffffffffffffffffffffffffff168273ffffffffffffffffffffffffffffffffffffffff161415610ef2576040517f08c379a000000000000000000000000000000000000000000000000000000000815260040180806020018281038252602a815260200180613e4d602a913960400191505060405180910390fd5b610f39600160008473ffffffffffffffffffffffffffffffffffffffff1673ffffffffffffffffffffffffffffffffffffffff1681526020019081526020016000206125d6565b9050919050565b610f48611e47565b73ffffffffffffffffffffffffffffffffffffffff16610f666110b0565b73ffffffffffffffffffffffffffffffffffffffff1614610fef576040517f08c379a00000000000000000000000000000000000000000000000000000000081526004018080602001828103825260208152602001807f4f776e61626c653a2063616c6c6572206973206e6f7420746865206f776e657281525060200191505060405180910390fd5b600073ffffffffffffffffffffffffffffffffffffffff16600a60009054906101000a900473ffffffffffffffffffffffffffffffffffffffff1673ffffffffffffffffffffffffffffffffffffffff167f8be0079c531659141344cd1fd0a4f28419497f9722a3daafe3b4186f6b6457e060405160405180910390a36000600a60006101000a81548173ffffffffffffffffffffffffffffffffffffffff021916908373ffffffffffffffffffffffffffffffffffffffff160217905550565b6000600a60009054906101000a900473ffffffffffffffffffffffffffffffffffffffff16905090565b606060006110e8600b612284565b67ffffffffffffffff811180156110fe57600080fd5b5060405190808252806020026020018201604052801561113857816020015b611125613192565b81526020019060019003908161111d5790505b509050600080600190505b600161114f600b612284565b018110156113275760011515600d600083815260200190815260200160002060009054906101000a900460ff161515141561131a57600c60008281526020019081526020016000206040518060800160405290816000820154815260200160018201548152602001600282018054600181600116156101000203166002900480601f01602080910402602001604051908101604052809291908181526020018280546001816001161561010002031660029004801561124f5780601f106112245761010080835404028352916020019161124f565b820191906000526020600020905b81548152906001019060200180831161123257829003601f168201915b50505050508152602001600382018054600181600116156101000203166002900480601f0160208091040260200160405190810160405280929190818152602001828054600181600116156101000203166002900480156112f15780601f106112c6576101008083540402835291602001916112f1565b820191906000526020600020905b8154815290600101906020018083116112d457829003601f168201915b50505050508152505083838151811061130657fe5b602002602001018190525081806001019250505b8080600101915050611143565b50819250505090565b606060078054600181600116156101000203166002900480601f0160208091040260200160405190810160405280929190818152602001828054600181600116156101000203166002900480156113c85780601f1061139d576101008083540402835291602001916113c8565b820191906000526020600020905b8154815290600101906020018083116113ab57829003601f168201915b5050505050905090565b6113da611e47565b73ffffffffffffffffffffffffffffffffffffffff168273ffffffffffffffffffffffffffffffffffffffff16141561147b576040517f08c379a00000000000000000000000000000000000000000000000000000000081526004018080602001828103825260198152602001807f4552433732313a20617070726f766520746f2063616c6c65720000000000000081525060200191505060405180910390fd5b8060056000611488611e47565b73ffffffffffffffffffffffffffffffffffffffff1673ffffffffffffffffffffffffffffffffffffffff16815260200190815260200160002060008473ffffffffffffffffffffffffffffffffffffffff1673ffffffffffffffffffffffffffffffffffffffff16815260200190815260200160002060006101000a81548160ff0219169083151502179055508173ffffffffffffffffffffffffffffffffffffffff16611535611e47565b73ffffffffffffffffffffffffffffffffffffffff167f17307eab39ab6107e8899845ad3d59bd9653f200f220920489ca2b5937696c318360405180821515815260200191505060405180910390a35050565b611599611593611e47565b83611f1d565b6115ee576040517f08c379a0000000000000000000000000000000000000000000000000000000008152600401808060200182810382526031815260200180613f936031913960400191505060405180910390fd5b6115fa848484846125eb565b50505050565b600073ffffffffffffffffffffffffffffffffffffffff163373ffffffffffffffffffffffffffffffffffffffff1614158015611671575061164181610d03565b73ffffffffffffffffffffffffffffffffffffffff163373ffffffffffffffffffffffffffffffffffffffff1614155b61167a57600080fd5b600c60008281526020019081526020016000206001015434101561169d57600080fd5b60006116a882610d03565b90508073ffffffffffffffffffffffffffffffffffffffff166108fc349081150290604051600060405180830381858888f193505050501580156116f0573d6000803e3d6000fd5b506116fc8160016113d2565b611707813384612011565b6000600d600084815260200190815260200160002060006101000a81548160ff0219169083151502179055508073ffffffffffffffffffffffffffffffffffffffff163373ffffffffffffffffffffffffffffffffffffffff167f0a553f03004ca54c18763b68c9ef162311a3c847d15f2d2e12a39cdf28e966ce846040516117909190613aed565b60405180910390a33373ffffffffffffffffffffffffffffffffffffffff168173ffffffffffffffffffffffffffffffffffffffff167ff3ecb4dab83f41da3035ff9cb3a2ef0c3027ebb89ae4e4b822d7c109e869a2fc846040516117f59190613aed565b60405180910390a35050565b606061180c82611e2a565b611861576040517f08c379a000000000000000000000000000000000000000000000000000000000815260040180806020018281038252602f815260200180613f43602f913960400191505060405180910390fd5b6000600860008481526020019081526020016000208054600181600116156101000203166002900480601f01602080910402602001604051908101604052809291908181526020018280546001816001161561010002031660029004801561190a5780601f106118df5761010080835404028352916020019161190a565b820191906000526020600020905b8154815290600101906020018083116118ed57829003601f168201915b50505050509050600061191b610dc9565b9050600081511415611931578192505050611acd565b600082511115611a025780826040516020018083805190602001908083835b602083106119735780518252602082019150602081019050602083039250611950565b6001836020036101000a03801982511681845116808217855250505050505090500182805190602001908083835b602083106119c457805182526020820191506020810190506020830392506119a1565b6001836020036101000a0380198251168184511680821785525050505050509050019250505060405160208183030381529060405292505050611acd565b80611a0c8561265d565b6040516020018083805190602001908083835b60208310611a425780518252602082019150602081019050602083039250611a1f565b6001836020036101000a03801982511681845116808217855250505050505090500182805190602001908083835b60208310611a935780518252602082019150602081019050602083039250611a70565b6001836020036101000a03801982511681845116808217855250505050505090500192505050604051602081830303815290604052925050505b919050565b6000611add82611e2a565b611b1c576040517f08c379a0000000000000000000000000000000000000000000000000000000008152600401611b1390613a6b565b60405180910390fd5b600c6000838152602001908152602001600020600101549050919050565b6000600560008473ffffffffffffffffffffffffffffffffffffffff1673ffffffffffffffffffffffffffffffffffffffff16815260200190815260200160002060008373ffffffffffffffffffffffffffffffffffffffff1673ffffffffffffffffffffffffffffffffffffffff16815260200190815260200160002060009054906101000a900460ff16905092915050565b611bd782611e2a565b611c16576040517f08c379a0000000000000000000000000000000000000000000000000000000008152600401611c0d90613a8b565b60405180910390fd5b80600c6000848152602001908152602001600020600101819055505050565b611c3d611e47565b73ffffffffffffffffffffffffffffffffffffffff16611c5b6110b0565b73ffffffffffffffffffffffffffffffffffffffff1614611ce4576040517f08c379a00000000000000000000000000000000000000000000000000000000081526004018080602001828103825260208152602001807f4f776e61626c653a2063616c6c6572206973206e6f7420746865206f776e657281525060200191505060405180910390fd5b600073ffffffffffffffffffffffffffffffffffffffff168173ffffffffffffffffffffffffffffffffffffffff161415611d6a576040517f08c379a0000000000000000000000000000000000000000000000000000000008152600401808060200182810382526026815260200180613d796026913960400191505060405180910390fd5b8073ffffffffffffffffffffffffffffffffffffffff16600a60009054906101000a900473ffffffffffffffffffffffffffffffffffffffff1673ffffffffffffffffffffffffffffffffffffffff167f8be0079c531659141344cd1fd0a4f28419497f9722a3daafe3b4186f6b6457e060405160405180910390a380600a60006101000a81548173ffffffffffffffffffffffffffffffffffffffff021916908373ffffffffffffffffffffffffffffffffffffffff16021790555050565b6000611e408260026127a490919063ffffffff16565b9050919050565b600033905090565b816004600083815260200190815260200160002060006101000a81548173ffffffffffffffffffffffffffffffffffffffff021916908373ffffffffffffffffffffffffffffffffffffffff160217905550808273ffffffffffffffffffffffffffffffffffffffff16611ec283610d03565b73ffffffffffffffffffffffffffffffffffffffff167f8c5be1e5ebec7d5bd14f71427d1e84f3dd0314c0f7b2291e5b200ac8c7c3b92560405160405180910390a45050565b6000611f16826000016127be565b9050919050565b6000611f2882611e2a565b611f7d576040517f08c379a000000000000000000000000000000000000000000000000000000000815260040180806020018281038252602c815260200180613de9602c913960400191505060405180910390fd5b6000611f8883610d03565b90508073ffffffffffffffffffffffffffffffffffffffff168473ffffffffffffffffffffffffffffffffffffffff161480611ff757508373ffffffffffffffffffffffffffffffffffffffff16611fdf846107c6565b73ffffffffffffffffffffffffffffffffffffffff16145b8061200857506120078185611b3a565b5b91505092915050565b8273ffffffffffffffffffffffffffffffffffffffff1661203182610d03565b73ffffffffffffffffffffffffffffffffffffffff161461209d576040517f08c379a0000000000000000000000000000000000000000000000000000000008152600401808060200182810382526029815260200180613f1a6029913960400191505060405180910390fd5b600073ffffffffffffffffffffffffffffffffffffffff168273ffffffffffffffffffffffffffffffffffffffff161415612123576040517f08c379a0000000000000000000000000000000000000000000000000000000008152600401808060200182810382526024815260200180613d9f6024913960400191505060405180910390fd5b61212e8383836127cf565b612139600082611e4f565b61218a81600160008673ffffffffffffffffffffffffffffffffffffffff1673ffffffffffffffffffffffffffffffffffffffff1681526020019081526020016000206127d490919063ffffffff16565b506121dc81600160008573ffffffffffffffffffffffffffffffffffffffff1673ffffffffffffffffffffffffffffffffffffffff1681526020019081526020016000206127ee90919063ffffffff16565b506121f3818360026128089092919063ffffffff16565b50808273ffffffffffffffffffffffffffffffffffffffff168473ffffffffffffffffffffffffffffffffffffffff167fddf252ad1be2c89b69c2b068fc378daa952ba7f163c4a11628f55a4df523b3ef60405160405180910390a4505050565b6000612263836000018361283d565b60001c905092915050565b6001816000016000828254019250508190555050565b600081600001549050919050565b600073ffffffffffffffffffffffffffffffffffffffff168273ffffffffffffffffffffffffffffffffffffffff161415612335576040517f08c379a00000000000000000000000000000000000000000000000000000000081526004018080602001828103825260208152602001807f4552433732313a206d696e7420746f20746865207a65726f206164647265737381525060200191505060405180910390fd5b61233e81611e2a565b156123b1576040517f08c379a000000000000000000000000000000000000000000000000000000000815260040180806020018281038252601c8152602001807f4552433732313a20746f6b656e20616c7265616479206d696e7465640000000081525060200191505060405180910390fd5b6123bd600083836127cf565b61240e81600160008573ffffffffffffffffffffffffffffffffffffffff1673ffffffffffffffffffffffffffffffffffffffff1681526020019081526020016000206127ee90919063ffffffff16565b50612425818360026128089092919063ffffffff16565b50808273ffffffffffffffffffffffffffffffffffffffff16600073ffffffffffffffffffffffffffffffffffffffff167fddf252ad1be2c89b69c2b068fc378daa952ba7f163c4a11628f55a4df523b3ef60405160405180910390a45050565b61248f82611e2a565b6124e4576040517f08c379a000000000000000000000000000000000000000000000000000000000815260040180806020018281038252602c815260200180613eee602c913960400191505060405180910390fd5b8060086000848152602001908152602001600020908051906020019061250b9291906131ba565b505050565b61251982611e2a565b61252257600080fd5b80600c6000848152602001908152602001600020600082015181600001556020820151816001015560408201518160020190805190602001906125669291906131ba565b5060608201518160030190805190602001906125839291906131ba565b509050505050565b60008060008061259e86600001866128c0565b915091508160001c8160001c9350935050509250929050565b60006125ca846000018460001b84612959565b60001c90509392505050565b60006125e482600001612a4f565b9050919050565b6125f6848484612011565b61260284848484612a60565b612657576040517f08c379a0000000000000000000000000000000000000000000000000000000008152600401808060200182810382526032815260200180613d476032913960400191505060405180910390fd5b50505050565b606060008214156126a5576040518060400160405280600181526020017f3000000000000000000000000000000000000000000000000000000000000000815250905061279f565b600082905060005b600082146126cf578080600101915050600a82816126c757fe5b0491506126ad565b60008167ffffffffffffffff811180156126e857600080fd5b506040519080825280601f01601f19166020018201604052801561271b5781602001600182028036833780820191505090505b50905060006001830390508593505b6000841461279757600a848161273c57fe5b0660300160f81b8282806001900393508151811061275657fe5b60200101907effffffffffffffffffffffffffffffffffffffffffffffffffffffffffffff1916908160001a905350600a848161278f57fe5b04935061272a565b819450505050505b919050565b60006127b6836000018360001b612c79565b905092915050565b600081600001805490509050919050565b505050565b60006127e6836000018360001b612c9c565b905092915050565b6000612800836000018360001b612d84565b905092915050565b6000612834846000018460001b8473ffffffffffffffffffffffffffffffffffffffff1660001b612df4565b90509392505050565b60008183600001805490501161289e576040517f08c379a0000000000000000000000000000000000000000000000000000000008152600401808060200182810382526022815260200180613d256022913960400191505060405180910390fd5b8260000182815481106128ad57fe5b9060005260206000200154905092915050565b60008082846000018054905011612922576040517f08c379a0000000000000000000000000000000000000000000000000000000008152600401808060200182810382526022815260200180613ea06022913960400191505060405180910390fd5b600084600001848154811061293357fe5b906000526020600020906002020190508060000154816001015492509250509250929050565b60008084600101600085815260200190815260200160002054905060008114158390612a20576040517f08c379a00000000000000000000000000000000000000000000000000000000081526004018080602001828103825283818151815260200191508051906020019080838360005b838110156129e55780820151818401526020810190506129ca565b50505050905090810190601f168015612a125780820380516001836020036101000a031916815260200191505b509250505060405180910390fd5b50846000016001820381548110612a3357fe5b9060005260206000209060020201600101549150509392505050565b600081600001805490509050919050565b6000612a818473ffffffffffffffffffffffffffffffffffffffff16612ed0565b612a8e5760019050612c71565b6000612bf863150b7a0260e01b612aa3611e47565b888787604051602401808573ffffffffffffffffffffffffffffffffffffffff1681526020018473ffffffffffffffffffffffffffffffffffffffff16815260200183815260200180602001828103825283818151815260200191508051906020019080838360005b83811015612b27578082015181840152602081019050612b0c565b50505050905090810190601f168015612b545780820380516001836020036101000a031916815260200191505b5095505050505050604051602081830303815290604052907bffffffffffffffffffffffffffffffffffffffffffffffffffffffff19166020820180517bffffffffffffffffffffffffffffffffffffffffffffffffffffffff8381831617835250505050604051806060016040528060328152602001613d47603291398773ffffffffffffffffffffffffffffffffffffffff16612ee39092919063ffffffff16565b90506000818060200190516020811015612c1157600080fd5b8101908080519060200190929190505050905063150b7a0260e01b7bffffffffffffffffffffffffffffffffffffffffffffffffffffffff1916817bffffffffffffffffffffffffffffffffffffffffffffffffffffffff191614925050505b949350505050565b600080836001016000848152602001908152602001600020541415905092915050565b60008083600101600084815260200190815260200160002054905060008114612d785760006001820390506000600186600001805490500390506000866000018281548110612ce757fe5b9060005260206000200154905080876000018481548110612d0457fe5b9060005260206000200181905550600183018760010160008381526020019081526020016000208190555086600001805480612d3c57fe5b60019003818190600052602060002001600090559055866001016000878152602001908152602001600020600090556001945050505050612d7e565b60009150505b92915050565b6000612d908383612efb565b612de9578260000182908060018154018082558091505060019003906000526020600020016000909190919091505582600001805490508360010160008481526020019081526020016000208190555060019050612dee565b600090505b92915050565b6000808460010160008581526020019081526020016000205490506000811415612e9b57846000016040518060400160405280868152602001858152509080600181540180825580915050600190039060005260206000209060020201600090919091909150600082015181600001556020820151816001015550508460000180549050856001016000868152602001908152602001600020819055506001915050612ec9565b82856000016001830381548110612eae57fe5b90600052602060002090600202016001018190555060009150505b9392505050565b600080823b905060008111915050919050565b6060612ef28484600085612f1e565b90509392505050565b600080836001016000848152602001908152602001600020541415905092915050565b606082471015612f79576040517f08c379a0000000000000000000000000000000000000000000000000000000008152600401808060200182810382526026815260200180613dc36026913960400191505060405180910390fd5b612f8285612ed0565b612ff4576040517f08c379a000000000000000000000000000000000000000000000000000000000815260040180806020018281038252601d8152602001807f416464726573733a2063616c6c20746f206e6f6e2d636f6e747261637400000081525060200191505060405180910390fd5b6000808673ffffffffffffffffffffffffffffffffffffffff1685876040518082805190602001908083835b602083106130435780518252602082019150602081019050602083039250613020565b6001836020036101000a03801982511681845116808217855250505050505090500191505060006040518083038185875af1925050503d80600081146130a5576040519150601f19603f3d011682016040523d82523d6000602084013e6130aa565b606091505b50915091506130ba8282866130c6565b92505050949350505050565b606083156130d65782905061318b565b6000835111156130e95782518084602001fd5b816040517f08c379a00000000000000000000000000000000000000000000000000000000081526004018080602001828103825283818151815260200191508051906020019080838360005b83811015613150578082015181840152602081019050613135565b50505050905090810190601f16801561317d5780820380516001836020036101000a031916815260200191505b509250505060405180910390fd5b9392505050565b6040518060800160405280600081526020016000815260200160608152602001606081525090565b828054600181600116156101000203166002900490600052602060002090601f0160209004810192826131f05760008555613237565b82601f1061320957805160ff1916838001178555613237565b82800160010185558215613237579182015b8281111561323657825182559160200191906001019061321b565b5b5090506132449190613248565b5090565b5b80821115613261576000816000905550600101613249565b5090565b600061327861327384613b39565b613b08565b90508281526020810184848401111561329057600080fd5b61329b848285613c73565b509392505050565b60006132b66132b184613b69565b613b08565b9050828152602081018484840111156132ce57600080fd5b6132d9848285613c73565b509392505050565b6000813590506132f081613cc8565b92915050565b60008135905061330581613cdf565b92915050565b60008135905061331a81613cf6565b92915050565b600082601f83011261333157600080fd5b8135613341848260208601613265565b91505092915050565b600082601f83011261335b57600080fd5b813561336b8482602086016132a3565b91505092915050565b60008135905061338381613d0d565b92915050565b60006020828403121561339b57600080fd5b60006133a9848285016132e1565b91505092915050565b600080604083850312156133c557600080fd5b60006133d3858286016132e1565b92505060206133e4858286016132e1565b9150509250929050565b60008060006060848603121561340357600080fd5b6000613411868287016132e1565b9350506020613422868287016132e1565b925050604061343386828701613374565b9150509250925092565b6000806000806080858703121561345357600080fd5b6000613461878288016132e1565b9450506020613472878288016132e1565b935050604061348387828801613374565b925050606085013567ffffffffffffffff8111156134a057600080fd5b6134ac87828801613320565b91505092959194509250565b600080604083850312156134cb57600080fd5b60006134d9858286016132e1565b92505060206134ea858286016132f6565b9150509250929050565b600080600080600060a0868803121561350c57600080fd5b600061351a888289016132e1565b955050602086013567ffffffffffffffff81111561353757600080fd5b6135438882890161334a565b945050604086013567ffffffffffffffff81111561356057600080fd5b61356c8882890161334a565b935050606061357d88828901613374565b925050608061358e888289016132f6565b9150509295509295909350565b600080604083850312156135ae57600080fd5b60006135bc858286016132e1565b92505060206135cd85828601613374565b9150509250929050565b6000602082840312156135e957600080fd5b60006135f78482850161330b565b91505092915050565b60006020828403121561361257600080fd5b600061362084828501613374565b91505092915050565b60008060006060848603121561363e57600080fd5b600061364c86828701613374565b935050602061365d868287016132f6565b925050604061366e86828701613374565b9150509250925092565b6000806040838503121561368b57600080fd5b600061369985828601613374565b92505060206136aa85828601613374565b9150509250929050565b60006136c083836138ff565b905092915050565b6136d181613bff565b82525050565b60006136e282613ba9565b6136ec8185613bcc565b9350836020820285016136fe85613b99565b8060005b8581101561373a578484038952815161371b85826136b4565b945061372683613bbf565b925060208a01995050600181019050613702565b50829750879550505050505092915050565b61375581613c11565b82525050565b600061376682613bb4565b6137708185613bdd565b9350613780818560208601613c82565b61378981613cb7565b840191505092915050565b600061379f82613bb4565b6137a98185613bee565b93506137b9818560208601613c82565b6137c281613cb7565b840191505092915050565b60006137da603183613bee565b91507f4552433732314d657461646174613a20507269636520717565727920666f722060008301527f6e6f6e6578697374656e7420746f6b656e0000000000000000000000000000006020830152604082019050919050565b6000613840602e83613bee565b91507f4552433732314d657461646174613a20507269636520736574206f66206e6f6e60008301527f6578697374656e7420746f6b656e0000000000000000000000000000000000006020830152604082019050919050565b60006138a6602d83613bee565b91507f4552433732314d657461646174613a2053616c6520736574206f66206e6f6e6560008301527f78697374656e7420746f6b656e000000000000000000000000000000000000006020830152604082019050919050565b600060808301600083015161391760008601826139d3565b50602083015161392a60208601826139d3565b5060408301518482036040860152613942828261375b565b9150506060830151848203606086015261395c828261375b565b9150508091505092915050565b600060808301600083015161398160008601826139d3565b50602083015161399460208601826139d3565b50604083015184820360408601526139ac828261375b565b915050606083015184820360608601526139c6828261375b565b9150508091505092915050565b6139dc81613c69565b82525050565b6139eb81613c69565b82525050565b6000602082019050613a0660008301846136c8565b92915050565b60006020820190508181036000830152613a2681846136d7565b905092915050565b6000602082019050613a43600083018461374c565b92915050565b60006020820190508181036000830152613a638184613794565b905092915050565b60006020820190508181036000830152613a84816137cd565b9050919050565b60006020820190508181036000830152613aa481613833565b9050919050565b60006020820190508181036000830152613ac481613899565b9050919050565b60006020820190508181036000830152613ae58184613969565b905092915050565b6000602082019050613b0260008301846139e2565b92915050565b6000604051905081810181811067ffffffffffffffff82111715613b2f57613b2e613cb5565b5b8060405250919050565b600067ffffffffffffffff821115613b5457613b53613cb5565b5b601f19601f8301169050602081019050919050565b600067ffffffffffffffff821115613b8457613b83613cb5565b5b601f19601f8301169050602081019050919050565b6000819050602082019050919050565b600081519050919050565b600081519050919050565b6000602082019050919050565b600082825260208201905092915050565b600082825260208201905092915050565b600082825260208201905092915050565b6000613c0a82613c49565b9050919050565b60008115159050919050565b60007fffffffff0000000000000000000000000000000000000000000000000000000082169050919050565b600073ffffffffffffffffffffffffffffffffffffffff82169050919050565b6000819050919050565b82818337600083830152505050565b60005b83811015613ca0578082015181840152602081019050613c85565b83811115613caf576000848401525b50505050565bfe5b6000601f19601f8301169050919050565b613cd181613bff565b8114613cdc57600080fd5b50565b613ce881613c11565b8114613cf357600080fd5b50565b613cff81613c1d565b8114613d0a57600080fd5b50565b613d1681613c69565b8114613d2157600080fd5b5056fe456e756d657261626c655365743a20696e646578206f7574206f6620626f756e64734552433732313a207472616e7366657220746f206e6f6e20455243373231526563656976657220696d706c656d656e7465724f776e61626c653a206e6577206f776e657220697320746865207a65726f20616464726573734552433732313a207472616e7366657220746f20746865207a65726f2061646472657373416464726573733a20696e73756666696369656e742062616c616e636520666f722063616c6c4552433732313a206f70657261746f7220717565727920666f72206e6f6e6578697374656e7420746f6b656e4552433732313a20617070726f76652063616c6c6572206973206e6f74206f776e6572206e6f7220617070726f76656420666f7220616c6c4552433732313a2062616c616e636520717565727920666f7220746865207a65726f20616464726573734552433732313a206f776e657220717565727920666f72206e6f6e6578697374656e7420746f6b656e456e756d657261626c654d61703a20696e646578206f7574206f6620626f756e64734552433732313a20617070726f76656420717565727920666f72206e6f6e6578697374656e7420746f6b656e4552433732314d657461646174613a2055524920736574206f66206e6f6e6578697374656e7420746f6b656e4552433732313a207472616e73666572206f6620746f6b656e2074686174206973206e6f74206f776e4552433732314d657461646174613a2055524920717565727920666f72206e6f6e6578697374656e7420746f6b656e4552433732313a20617070726f76616c20746f2063757272656e74206f776e65724552433732313a207472616e736665722063616c6c6572206973206e6f74206f776e6572206e6f7220617070726f766564a264697066735822122050620b96a3f4fed5256a4345cab27ccaf37a98a783277516cd67e28dd9339cf264736f6c63430007060033",
  "immutableReferences": {},
  "source": "// SPDX-License-Identifier: MIT\npragma solidity >=0.4.22 <0.9.0;\npragma experimental ABIEncoderV2;\n\nimport \"../node_modules/@openzeppelin/contracts/token/ERC721/ERC721.sol\";\nimport \"../node_modules/@openzeppelin/contracts/access/Ownable.sol\";\nimport \"../node_modules/@openzeppelin/contracts/utils/Counters.sol\";\n\ncontract LVR is ERC721, Ownable {\n    using Counters for Counters.Counter;\n    Counters.Counter private _tokenIds;\n\n    event Bought(address indexed owner,address indexed from, uint256 tokenid);\n    event Sold(address indexed owner, address indexed to, uint256 tokenid);\n\n    mapping (uint256 => TokenMeta) private _tokenMeta;\n    mapping (uint256 => bool) private _tokenOnSale;\n\n    struct TokenMeta {\n        uint256 id;\n        uint256 price;\n        string name;\n        string uri;\n    }\n\n    constructor() ERC721(\"LVR\", \"LVR\") {}\n\n    function getAllOnSale () public view virtual returns( TokenMeta[] memory ) {\n        TokenMeta[] memory tokensOnSale = new TokenMeta[](_tokenIds.current());\n        uint256 counter = 0;\n\n        for(uint i = 1; i < _tokenIds.current() + 1; i++) {\n            if(_tokenOnSale[i] == true) {\n                tokensOnSale[counter] = _tokenMeta[i];\n                counter++;\n            }\n        }\n        return tokensOnSale;\n    }\n\n    /**\n     * @dev sets maps token to its price\n     * @param _tokenId uint256 token ID (token number)\n     * @param _sale bool token on sale\n     * @param _price unit256 token price\n     * \n     * Requirements: \n     * `tokenId` must exist\n     */\n    function setTokenSale(uint256 _tokenId, bool _sale, uint256 _price) public {\n        require(_exists(_tokenId), \"ERC721Metadata: Sale set of nonexistent token\");\n        require(_price > 0);\n\n        _tokenOnSale[_tokenId] = _sale;\n        setTokenPrice(_tokenId, _price);\n    }\n\n    /**\n     * @dev sets maps token to its price\n     * @param _tokenId uint256 token ID (token number)\n     * @param _price uint256 token price\n     * \n     * Requirements: \n     * `tokenId` must exist\n     */\n    function setTokenPrice(uint256 _tokenId, uint256 _price) public {\n        require(_exists(_tokenId), \"ERC721Metadata: Price set of nonexistent token\");\n        _tokenMeta[_tokenId].price = _price;\n    }\n\n    function tokenPrice(uint256 tokenId) public view virtual returns (uint256) {\n        require(_exists(tokenId), \"ERC721Metadata: Price query for nonexistent token\");\n        return _tokenMeta[tokenId].price;\n    }\n\n    function _setTokenMeta(uint256 _tokenId, TokenMeta memory _meta) private {\n        require(_exists(_tokenId));\n        _tokenMeta[_tokenId] = _meta;\n    }\n\n    function tokenMeta(uint256 _tokenId) public view returns (TokenMeta memory) {\n        require(_exists(_tokenId));\n        return _tokenMeta[_tokenId];\n    }\n\n    /**\n     * @dev purchase _tokenId\n     * @param _tokenId uint256 token ID (painting number)\n     */\n    function purchaseToken(uint256 _tokenId) public payable {\n        require(msg.sender != address(0) && msg.sender != ownerOf(_tokenId));\n        require(msg.value >= _tokenMeta[_tokenId].price);\n        address tokenSeller = ownerOf(_tokenId);\n\n        payable(tokenSeller).transfer(msg.value);\n\n        setApprovalForAll(tokenSeller, true);\n        _transfer(tokenSeller, msg.sender, _tokenId);\n        _tokenOnSale[_tokenId] = false;\n\n        emit Bought(msg.sender, tokenSeller, _tokenId);\n        emit Sold(tokenSeller, msg.sender, _tokenId);\n    }\n\n    function mintCollectable(\n        address _owner, \n        string memory _tokenURI, \n        string memory _name, \n        uint256 _price, \n        bool _sale\n    )\n        public\n        returns (uint256)\n    {\n        require(_price > 0);\n\n        _tokenIds.increment();\n\n        uint256 newItemId = _tokenIds.current();\n        _mint(_owner, newItemId);\n        _setTokenURI(newItemId, _tokenURI);\n\n        TokenMeta memory meta = TokenMeta(newItemId, _price, _name, _tokenURI);\n        _setTokenMeta(newItemId, meta);\n        _tokenOnSale[newItemId] = _sale;\n\n        return newItemId;\n    }\n}",
  "sourcePath": "/Users/paganinisilvio/Desktop/Workspace/LVR/eth/contracts/LVR.sol",
  "compiler": {
    "name": "solc",
    "version": "0.7.6+commit.7338295f.Emscripten.clang"
  },
  "schemaVersion": "3.3.4",
  "updatedAt": "2021-03-10T19:50:59.420Z",
  "networkType": "ethereum",
  "devdoc": {
    "kind": "dev",
    "methods": {
      "approve(address,uint256)": {
        "details": "See {IERC721-approve}."
      },
      "balanceOf(address)": {
        "details": "See {IERC721-balanceOf}."
      },
      "baseURI()": {
        "details": "Returns the base URI set via {_setBaseURI}. This will be automatically added as a prefix in {tokenURI} to each token's URI, or to the token ID if no specific URI is set for that token ID."
      },
      "getApproved(uint256)": {
        "details": "See {IERC721-getApproved}."
      },
      "isApprovedForAll(address,address)": {
        "details": "See {IERC721-isApprovedForAll}."
      },
      "name()": {
        "details": "See {IERC721Metadata-name}."
      },
      "owner()": {
        "details": "Returns the address of the current owner."
      },
      "ownerOf(uint256)": {
        "details": "See {IERC721-ownerOf}."
      },
      "purchaseToken(uint256)": {
        "details": "purchase _tokenId",
        "params": {
          "_tokenId": "uint256 token ID (painting number)"
        }
      },
      "renounceOwnership()": {
        "details": "Leaves the contract without owner. It will not be possible to call `onlyOwner` functions anymore. Can only be called by the current owner. NOTE: Renouncing ownership will leave the contract without an owner, thereby removing any functionality that is only available to the owner."
      },
      "safeTransferFrom(address,address,uint256)": {
        "details": "See {IERC721-safeTransferFrom}."
      },
      "safeTransferFrom(address,address,uint256,bytes)": {
        "details": "See {IERC721-safeTransferFrom}."
      },
      "setApprovalForAll(address,bool)": {
        "details": "See {IERC721-setApprovalForAll}."
      },
      "setTokenPrice(uint256,uint256)": {
        "details": "sets maps token to its price",
        "params": {
          "_price": "uint256 token price  Requirements:  `tokenId` must exist",
          "_tokenId": "uint256 token ID (token number)"
        }
      },
      "setTokenSale(uint256,bool,uint256)": {
        "details": "sets maps token to its price",
        "params": {
          "_price": "unit256 token price  Requirements:  `tokenId` must exist",
          "_sale": "bool token on sale",
          "_tokenId": "uint256 token ID (token number)"
        }
      },
      "supportsInterface(bytes4)": {
        "details": "See {IERC165-supportsInterface}. Time complexity O(1), guaranteed to always use less than 30 000 gas."
      },
      "symbol()": {
        "details": "See {IERC721Metadata-symbol}."
      },
      "tokenByIndex(uint256)": {
        "details": "See {IERC721Enumerable-tokenByIndex}."
      },
      "tokenOfOwnerByIndex(address,uint256)": {
        "details": "See {IERC721Enumerable-tokenOfOwnerByIndex}."
      },
      "tokenURI(uint256)": {
        "details": "See {IERC721Metadata-tokenURI}."
      },
      "totalSupply()": {
        "details": "See {IERC721Enumerable-totalSupply}."
      },
      "transferFrom(address,address,uint256)": {
        "details": "See {IERC721-transferFrom}."
      },
      "transferOwnership(address)": {
        "details": "Transfers ownership of the contract to a new account (`newOwner`). Can only be called by the current owner."
      }
    },
    "version": 1
  },
  "userdoc": {
    "kind": "user",
    "methods": {},
    "version": 1
  }
}