{
  "contractName": "LVR",
  "abi": [
    {
      "inputs": [],
      "stateMutability": "nonpayable",
      "type": "constructor"
    },
    {
      "anonymous": false,
      "inputs": [
        {
          "indexed": true,
          "internalType": "address",
          "name": "owner",
          "type": "address"
        },
        {
          "indexed": true,
          "internalType": "address",
          "name": "approved",
          "type": "address"
        },
        {
          "indexed": true,
          "internalType": "uint256",
          "name": "tokenId",
          "type": "uint256"
        }
      ],
      "name": "Approval",
      "type": "event"
    },
    {
      "anonymous": false,
      "inputs": [
        {
          "indexed": true,
          "internalType": "address",
          "name": "owner",
          "type": "address"
        },
        {
          "indexed": true,
          "internalType": "address",
          "name": "operator",
          "type": "address"
        },
        {
          "indexed": false,
          "internalType": "bool",
          "name": "approved",
          "type": "bool"
        }
      ],
      "name": "ApprovalForAll",
      "type": "event"
    },
    {
      "anonymous": false,
      "inputs": [
        {
          "indexed": true,
          "internalType": "address",
          "name": "owner",
          "type": "address"
        },
        {
          "indexed": true,
          "internalType": "address",
          "name": "from",
          "type": "address"
        },
        {
          "indexed": false,
          "internalType": "uint256",
          "name": "tokenid",
          "type": "uint256"
        }
      ],
      "name": "Bought",
      "type": "event"
    },
    {
      "anonymous": false,
      "inputs": [
        {
          "indexed": true,
          "internalType": "address",
          "name": "previousOwner",
          "type": "address"
        },
        {
          "indexed": true,
          "internalType": "address",
          "name": "newOwner",
          "type": "address"
        }
      ],
      "name": "OwnershipTransferred",
      "type": "event"
    },
    {
      "anonymous": false,
      "inputs": [
        {
          "indexed": true,
          "internalType": "address",
          "name": "owner",
          "type": "address"
        },
        {
          "indexed": true,
          "internalType": "address",
          "name": "to",
          "type": "address"
        },
        {
          "indexed": false,
          "internalType": "uint256",
          "name": "tokenid",
          "type": "uint256"
        }
      ],
      "name": "Sold",
      "type": "event"
    },
    {
      "anonymous": false,
      "inputs": [
        {
          "indexed": true,
          "internalType": "address",
          "name": "from",
          "type": "address"
        },
        {
          "indexed": true,
          "internalType": "address",
          "name": "to",
          "type": "address"
        },
        {
          "indexed": true,
          "internalType": "uint256",
          "name": "tokenId",
          "type": "uint256"
        }
      ],
      "name": "Transfer",
      "type": "event"
    },
    {
      "inputs": [
        {
          "internalType": "address",
          "name": "to",
          "type": "address"
        },
        {
          "internalType": "uint256",
          "name": "tokenId",
          "type": "uint256"
        }
      ],
      "name": "approve",
      "outputs": [],
      "stateMutability": "nonpayable",
      "type": "function"
    },
    {
      "inputs": [
        {
          "internalType": "address",
          "name": "owner",
          "type": "address"
        }
      ],
      "name": "balanceOf",
      "outputs": [
        {
          "internalType": "uint256",
          "name": "",
          "type": "uint256"
        }
      ],
      "stateMutability": "view",
      "type": "function",
      "constant": true
    },
    {
      "inputs": [],
      "name": "baseURI",
      "outputs": [
        {
          "internalType": "string",
          "name": "",
          "type": "string"
        }
      ],
      "stateMutability": "view",
      "type": "function",
      "constant": true
    },
    {
      "inputs": [
        {
          "internalType": "uint256",
          "name": "tokenId",
          "type": "uint256"
        }
      ],
      "name": "getApproved",
      "outputs": [
        {
          "internalType": "address",
          "name": "",
          "type": "address"
        }
      ],
      "stateMutability": "view",
      "type": "function",
      "constant": true
    },
    {
      "inputs": [
        {
          "internalType": "address",
          "name": "owner",
          "type": "address"
        },
        {
          "internalType": "address",
          "name": "operator",
          "type": "address"
        }
      ],
      "name": "isApprovedForAll",
      "outputs": [
        {
          "internalType": "bool",
          "name": "",
          "type": "bool"
        }
      ],
      "stateMutability": "view",
      "type": "function",
      "constant": true
    },
    {
      "inputs": [],
      "name": "name",
      "outputs": [
        {
          "internalType": "string",
          "name": "",
          "type": "string"
        }
      ],
      "stateMutability": "view",
      "type": "function",
      "constant": true
    },
    {
      "inputs": [],
      "name": "owner",
      "outputs": [
        {
          "internalType": "address",
          "name": "",
          "type": "address"
        }
      ],
      "stateMutability": "view",
      "type": "function",
      "constant": true
    },
    {
      "inputs": [
        {
          "internalType": "uint256",
          "name": "tokenId",
          "type": "uint256"
        }
      ],
      "name": "ownerOf",
      "outputs": [
        {
          "internalType": "address",
          "name": "",
          "type": "address"
        }
      ],
      "stateMutability": "view",
      "type": "function",
      "constant": true
    },
    {
      "inputs": [],
      "name": "renounceOwnership",
      "outputs": [],
      "stateMutability": "nonpayable",
      "type": "function"
    },
    {
      "inputs": [
        {
          "internalType": "address",
          "name": "from",
          "type": "address"
        },
        {
          "internalType": "address",
          "name": "to",
          "type": "address"
        },
        {
          "internalType": "uint256",
          "name": "tokenId",
          "type": "uint256"
        }
      ],
      "name": "safeTransferFrom",
      "outputs": [],
      "stateMutability": "nonpayable",
      "type": "function"
    },
    {
      "inputs": [
        {
          "internalType": "address",
          "name": "from",
          "type": "address"
        },
        {
          "internalType": "address",
          "name": "to",
          "type": "address"
        },
        {
          "internalType": "uint256",
          "name": "tokenId",
          "type": "uint256"
        },
        {
          "internalType": "bytes",
          "name": "_data",
          "type": "bytes"
        }
      ],
      "name": "safeTransferFrom",
      "outputs": [],
      "stateMutability": "nonpayable",
      "type": "function"
    },
    {
      "inputs": [
        {
          "internalType": "address",
          "name": "operator",
          "type": "address"
        },
        {
          "internalType": "bool",
          "name": "approved",
          "type": "bool"
        }
      ],
      "name": "setApprovalForAll",
      "outputs": [],
      "stateMutability": "nonpayable",
      "type": "function"
    },
    {
      "inputs": [
        {
          "internalType": "bytes4",
          "name": "interfaceId",
          "type": "bytes4"
        }
      ],
      "name": "supportsInterface",
      "outputs": [
        {
          "internalType": "bool",
          "name": "",
          "type": "bool"
        }
      ],
      "stateMutability": "view",
      "type": "function",
      "constant": true
    },
    {
      "inputs": [],
      "name": "symbol",
      "outputs": [
        {
          "internalType": "string",
          "name": "",
          "type": "string"
        }
      ],
      "stateMutability": "view",
      "type": "function",
      "constant": true
    },
    {
      "inputs": [
        {
          "internalType": "uint256",
          "name": "index",
          "type": "uint256"
        }
      ],
      "name": "tokenByIndex",
      "outputs": [
        {
          "internalType": "uint256",
          "name": "",
          "type": "uint256"
        }
      ],
      "stateMutability": "view",
      "type": "function",
      "constant": true
    },
    {
      "inputs": [
        {
          "internalType": "address",
          "name": "owner",
          "type": "address"
        },
        {
          "internalType": "uint256",
          "name": "index",
          "type": "uint256"
        }
      ],
      "name": "tokenOfOwnerByIndex",
      "outputs": [
        {
          "internalType": "uint256",
          "name": "",
          "type": "uint256"
        }
      ],
      "stateMutability": "view",
      "type": "function",
      "constant": true
    },
    {
      "inputs": [
        {
          "internalType": "uint256",
          "name": "tokenId",
          "type": "uint256"
        }
      ],
      "name": "tokenURI",
      "outputs": [
        {
          "internalType": "string",
          "name": "",
          "type": "string"
        }
      ],
      "stateMutability": "view",
      "type": "function",
      "constant": true
    },
    {
      "inputs": [],
      "name": "totalSupply",
      "outputs": [
        {
          "internalType": "uint256",
          "name": "",
          "type": "uint256"
        }
      ],
      "stateMutability": "view",
      "type": "function",
      "constant": true
    },
    {
      "inputs": [
        {
          "internalType": "address",
          "name": "from",
          "type": "address"
        },
        {
          "internalType": "address",
          "name": "to",
          "type": "address"
        },
        {
          "internalType": "uint256",
          "name": "tokenId",
          "type": "uint256"
        }
      ],
      "name": "transferFrom",
      "outputs": [],
      "stateMutability": "nonpayable",
      "type": "function"
    },
    {
      "inputs": [
        {
          "internalType": "address",
          "name": "newOwner",
          "type": "address"
        }
      ],
      "name": "transferOwnership",
      "outputs": [],
      "stateMutability": "nonpayable",
      "type": "function"
    },
    {
      "inputs": [],
      "name": "getAllOnSale",
      "outputs": [
        {
          "components": [
            {
              "internalType": "uint256",
              "name": "id",
              "type": "uint256"
            },
            {
              "internalType": "uint256",
              "name": "price",
              "type": "uint256"
            },
            {
              "internalType": "string",
              "name": "uri",
              "type": "string"
            }
          ],
          "internalType": "struct LVR.TokenProps[]",
          "name": "",
          "type": "tuple[]"
        }
      ],
      "stateMutability": "view",
      "type": "function",
      "constant": true
    },
    {
      "inputs": [
        {
          "internalType": "uint256",
          "name": "_tokenId",
          "type": "uint256"
        },
        {
          "internalType": "bool",
          "name": "_sale",
          "type": "bool"
        },
        {
          "internalType": "uint256",
          "name": "_price",
          "type": "uint256"
        }
      ],
      "name": "setTokenSale",
      "outputs": [],
      "stateMutability": "nonpayable",
      "type": "function"
    },
    {
      "inputs": [
        {
          "internalType": "uint256",
          "name": "tokenId",
          "type": "uint256"
        },
        {
          "internalType": "uint256",
          "name": "_price",
          "type": "uint256"
        }
      ],
      "name": "setTokenPrice",
      "outputs": [],
      "stateMutability": "nonpayable",
      "type": "function"
    },
    {
      "inputs": [
        {
          "internalType": "uint256",
          "name": "tokenId",
          "type": "uint256"
        }
      ],
      "name": "tokenPrice",
      "outputs": [
        {
          "internalType": "uint256",
          "name": "",
          "type": "uint256"
        }
      ],
      "stateMutability": "view",
      "type": "function",
      "constant": true
    },
    {
      "inputs": [
        {
          "internalType": "uint256",
          "name": "_tokenId",
          "type": "uint256"
        }
      ],
      "name": "purchaseToken",
      "outputs": [],
      "stateMutability": "payable",
      "type": "function",
      "payable": true
    },
    {
      "inputs": [
        {
          "internalType": "address",
          "name": "_owner",
          "type": "address"
        },
        {
          "internalType": "string",
          "name": "_tokenURI",
          "type": "string"
        },
        {
          "internalType": "uint256",
          "name": "_price",
          "type": "uint256"
        },
        {
          "internalType": "bool",
          "name": "_sale",
          "type": "bool"
        }
      ],
      "name": "mintCollectable",
      "outputs": [
        {
          "internalType": "uint256",
          "name": "",
          "type": "uint256"
        }
      ],
      "stateMutability": "nonpayable",
      "type": "function"
    }
  ],
  "bytecode": "0x60806040523480156200001157600080fd5b506040518060400160405280600381526020017f4c565200000000000000000000000000000000000000000000000000000000008152506040518060400160405280600381526020017f4c56520000000000000000000000000000000000000000000000000000000000815250620000966301ffc9a760e01b6200028160201b60201c565b8160069080519060200190620000ae929190620008a9565b508060079080519060200190620000c7929190620008a9565b50620000e06380ac58cd60e01b6200028160201b60201c565b620000f8635b5e139f60e01b6200028160201b60201c565b6200011063780e9d6360e01b6200028160201b60201c565b50506000620001246200038a60201b60201c565b905080600a60006101000a81548173ffffffffffffffffffffffffffffffffffffffff021916908373ffffffffffffffffffffffffffffffffffffffff1602179055508073ffffffffffffffffffffffffffffffffffffffff16600073ffffffffffffffffffffffffffffffffffffffff167f8be0079c531659141344cd1fd0a4f28419497f9722a3daafe3b4186f6b6457e060405160405180910390a350620001da600b6200039260201b62001ad11760201c565b6000620001f3600b620003a860201b62001ae71760201c565b9050620002073382620003b660201b60201c565b6200024e816040518060400160405280600781526020017f756e69636f726e00000000000000000000000000000000000000000000000000815250620005ca60201b60201c565b6000600d600083815260200190815260200160002060006101000a81548160ff021916908315150217905550506200095f565b63ffffffff60e01b817bffffffffffffffffffffffffffffffffffffffffffffffffffffffff191614156200031e576040517f08c379a000000000000000000000000000000000000000000000000000000000815260040180806020018281038252601c8152602001807f4552433136353a20696e76616c696420696e746572666163652069640000000081525060200191505060405180910390fd5b6001600080837bffffffffffffffffffffffffffffffffffffffffffffffffffffffff19167bffffffffffffffffffffffffffffffffffffffffffffffffffffffff1916815260200190815260200160002060006101000a81548160ff02191690831515021790555050565b600033905090565b6001816000016000828254019250508190555050565b600081600001549050919050565b600073ffffffffffffffffffffffffffffffffffffffff168273ffffffffffffffffffffffffffffffffffffffff1614156200045a576040517f08c379a00000000000000000000000000000000000000000000000000000000081526004018080602001828103825260208152602001807f4552433732313a206d696e7420746f20746865207a65726f206164647265737381525060200191505060405180910390fd5b6200046b816200066060201b60201c565b15620004df576040517f08c379a000000000000000000000000000000000000000000000000000000000815260040180806020018281038252601c8152602001807f4552433732313a20746f6b656e20616c7265616479206d696e7465640000000081525060200191505060405180910390fd5b620004f3600083836200068460201b60201c565b6200054b81600160008573ffffffffffffffffffffffffffffffffffffffff1673ffffffffffffffffffffffffffffffffffffffff1681526020019081526020016000206200068960201b62001af51790919060201c565b506200056981836002620006ab60201b62001b0f179092919060201c565b50808273ffffffffffffffffffffffffffffffffffffffff16600073ffffffffffffffffffffffffffffffffffffffff167fddf252ad1be2c89b69c2b068fc378daa952ba7f163c4a11628f55a4df523b3ef60405160405180910390a45050565b620005db826200066060201b60201c565b62000632576040517f08c379a000000000000000000000000000000000000000000000000000000000815260040180806020018281038252602c815260200180620044bb602c913960400191505060405180910390fd5b806008600084815260200190815260200160002090805190602001906200065b929190620008a9565b505050565b60006200067d826002620006e860201b62001b441790919060201c565b9050919050565b505050565b6000620006a3836000018360001b6200070a60201b60201c565b905092915050565b6000620006df846000018460001b8473ffffffffffffffffffffffffffffffffffffffff1660001b6200078460201b60201c565b90509392505050565b600062000702836000018360001b6200086360201b60201c565b905092915050565b60006200071e83836200088660201b60201c565b620007795782600001829080600181540180825580915050600190039060005260206000200160009091909190915055826000018054905083600101600084815260200190815260200160002081905550600190506200077e565b600090505b92915050565b60008084600101600085815260200190815260200160002054905060008114156200082d578460000160405180604001604052808681526020018581525090806001815401808255809150506001900390600052602060002090600202016000909190919091506000820151816000015560208201518160010155505084600001805490508560010160008681526020019081526020016000208190555060019150506200085c565b828560000160018303815481106200084157fe5b90600052602060002090600202016001018190555060009150505b9392505050565b600080836001016000848152602001908152602001600020541415905092915050565b600080836001016000848152602001908152602001600020541415905092915050565b828054600181600116156101000203166002900490600052602060002090601f016020900481019282620008e157600085556200092d565b82601f10620008fc57805160ff19168380011785556200092d565b828001600101855582156200092d579182015b828111156200092c5782518255916020019190600101906200090f565b5b5090506200093c919062000940565b5090565b5b808211156200095b57600081600090555060010162000941565b5090565b613b4c806200096f6000396000f3fe6080604052600436106101815760003560e01c806370a08231116100d1578063b88d4fde1161008a578063d4ddce8a11610064578063d4ddce8a14610599578063e985e9c5146105d6578063eb685c4714610613578063f2fde38b1461063c57610181565b8063b88d4fde14610517578063c2db2c4214610540578063c87b56dd1461055c57610181565b806370a0823114610419578063715018a6146104565780638da5cb5b1461046d578063908945591461049857806395d89b41146104c3578063a22cb465146104ee57610181565b80632f745c591161013e5780634f6ccce7116101185780634f6ccce71461034b5780636352211e146103885780636387ede6146103c55780636c0360eb146103ee57610181565b80632f745c59146102a85780633a77ac8b146102e557806342842e0e1461032257610181565b806301ffc9a71461018657806306fdde03146101c3578063081812fc146101ee578063095ea7b31461022b57806318160ddd1461025457806323b872dd1461027f575b600080fd5b34801561019257600080fd5b506101ad60048036038101906101a891906131d0565b610665565b6040516101ba91906135a3565b60405180910390f35b3480156101cf57600080fd5b506101d86106cc565b6040516101e591906135be565b60405180910390f35b3480156101fa57600080fd5b50610215600480360381019061021091906131f9565b61076e565b6040516102229190613566565b60405180910390f35b34801561023757600080fd5b50610252600480360381019061024d9190613194565b610809565b005b34801561026057600080fd5b5061026961094d565b6040516102769190613640565b60405180910390f35b34801561028b57600080fd5b506102a660048036038101906102a19190613013565b61095e565b005b3480156102b457600080fd5b506102cf60048036038101906102ca9190613194565b6109d4565b6040516102dc9190613640565b60405180910390f35b3480156102f157600080fd5b5061030c60048036038101906103079190613119565b610a2f565b6040516103199190613640565b60405180910390f35b34801561032e57600080fd5b5061034960048036038101906103449190613013565b610aaa565b005b34801561035757600080fd5b50610372600480360381019061036d91906131f9565b610aca565b60405161037f9190613640565b60405180910390f35b34801561039457600080fd5b506103af60048036038101906103aa91906131f9565b610aed565b6040516103bc9190613566565b60405180910390f35b3480156103d157600080fd5b506103ec60048036038101906103e79190613222565b610b24565b005b3480156103fa57600080fd5b50610403610bb3565b60405161041091906135be565b60405180910390f35b34801561042557600080fd5b50610440600480360381019061043b9190612fae565b610c55565b60405161044d9190613640565b60405180910390f35b34801561046257600080fd5b5061046b610d2a565b005b34801561047957600080fd5b50610482610e9a565b60405161048f9190613566565b60405180910390f35b3480156104a457600080fd5b506104ad610ec4565b6040516104ba9190613581565b60405180910390f35b3480156104cf57600080fd5b506104d8610fe0565b6040516104e591906135be565b60405180910390f35b3480156104fa57600080fd5b50610515600480360381019061051091906130dd565b611082565b005b34801561052357600080fd5b5061053e60048036038101906105399190613062565b611238565b005b61055a600480360381019061055591906131f9565b6112b0565b005b34801561056857600080fd5b50610583600480360381019061057e91906131f9565b6114ae565b60405161059091906135be565b60405180910390f35b3480156105a557600080fd5b506105c060048036038101906105bb91906131f9565b61177f565b6040516105cd9190613640565b60405180910390f35b3480156105e257600080fd5b506105fd60048036038101906105f89190612fd7565b6117e4565b60405161060a91906135a3565b60405180910390f35b34801561061f57600080fd5b5061063a60048036038101906106359190613271565b611878565b005b34801561064857600080fd5b50610663600480360381019061065e9190612fae565b6118dc565b005b6000806000837bffffffffffffffffffffffffffffffffffffffffffffffffffffffff19167bffffffffffffffffffffffffffffffffffffffffffffffffffffffff1916815260200190815260200160002060009054906101000a900460ff169050919050565b606060068054600181600116156101000203166002900480601f0160208091040260200160405190810160405280929190818152602001828054600181600116156101000203166002900480156107645780601f1061073957610100808354040283529160200191610764565b820191906000526020600020905b81548152906001019060200180831161074757829003601f168201915b5050505050905090565b600061077982611b5e565b6107ce576040517f08c379a000000000000000000000000000000000000000000000000000000000815260040180806020018281038252602c815260200180613a15602c913960400191505060405180910390fd5b6004600083815260200190815260200160002060009054906101000a900473ffffffffffffffffffffffffffffffffffffffff169050919050565b600061081482610aed565b90508073ffffffffffffffffffffffffffffffffffffffff168373ffffffffffffffffffffffffffffffffffffffff16141561089b576040517f08c379a0000000000000000000000000000000000000000000000000000000008152600401808060200182810382526021815260200180613ac56021913960400191505060405180910390fd5b8073ffffffffffffffffffffffffffffffffffffffff166108ba611b7b565b73ffffffffffffffffffffffffffffffffffffffff1614806108e957506108e8816108e3611b7b565b6117e4565b5b61093e576040517f08c379a00000000000000000000000000000000000000000000000000000000081526004018080602001828103825260388152602001806139686038913960400191505060405180910390fd5b6109488383611b83565b505050565b60006109596002611c3c565b905090565b61096f610969611b7b565b82611c51565b6109c4576040517f08c379a0000000000000000000000000000000000000000000000000000000008152600401808060200182810382526031815260200180613ae66031913960400191505060405180910390fd5b6109cf838383611d45565b505050565b6000610a2782600160008673ffffffffffffffffffffffffffffffffffffffff1673ffffffffffffffffffffffffffffffffffffffff168152602001908152602001600020611f8890919063ffffffff16565b905092915050565b6000808311610a3d57600080fd5b610a47600b611ad1565b6000610a53600b611ae7565b9050610a5f8682611fa2565b610a698186612196565b610a738185611878565b82600d600083815260200190815260200160002060006101000a81548160ff02191690831515021790555080915050949350505050565b610ac583838360405180602001604052806000815250611238565b505050565b600080610ae183600261222090919063ffffffff16565b50905080915050919050565b6000610b1d826040518060600160405280602981526020016139ca60299139600261224c9092919063ffffffff16565b9050919050565b610b2d83611b5e565b610b6c576040517f08c379a0000000000000000000000000000000000000000000000000000000008152600401610b6390613620565b60405180910390fd5b60008111610b7957600080fd5b81600d600085815260200190815260200160002060006101000a81548160ff021916908315150217905550610bae8382611878565b505050565b606060098054600181600116156101000203166002900480601f016020809104026020016040519081016040528092919081815260200182805460018160011615610100020316600290048015610c4b5780601f10610c2057610100808354040283529160200191610c4b565b820191906000526020600020905b815481529060010190602001808311610c2e57829003601f168201915b5050505050905090565b60008073ffffffffffffffffffffffffffffffffffffffff168273ffffffffffffffffffffffffffffffffffffffff161415610cdc576040517f08c379a000000000000000000000000000000000000000000000000000000000815260040180806020018281038252602a8152602001806139a0602a913960400191505060405180910390fd5b610d23600160008473ffffffffffffffffffffffffffffffffffffffff1673ffffffffffffffffffffffffffffffffffffffff16815260200190815260200160002061226b565b9050919050565b610d32611b7b565b73ffffffffffffffffffffffffffffffffffffffff16610d50610e9a565b73ffffffffffffffffffffffffffffffffffffffff1614610dd9576040517f08c379a00000000000000000000000000000000000000000000000000000000081526004018080602001828103825260208152602001807f4f776e61626c653a2063616c6c6572206973206e6f7420746865206f776e657281525060200191505060405180910390fd5b600073ffffffffffffffffffffffffffffffffffffffff16600a60009054906101000a900473ffffffffffffffffffffffffffffffffffffffff1673ffffffffffffffffffffffffffffffffffffffff167f8be0079c531659141344cd1fd0a4f28419497f9722a3daafe3b4186f6b6457e060405160405180910390a36000600a60006101000a81548173ffffffffffffffffffffffffffffffffffffffff021916908373ffffffffffffffffffffffffffffffffffffffff160217905550565b6000600a60009054906101000a900473ffffffffffffffffffffffffffffffffffffffff16905090565b60606000610ed2600b611ae7565b67ffffffffffffffff81118015610ee857600080fd5b50604051908082528060200260200182016040528015610f2257816020015b610f0f612dbe565b815260200190600190039081610f075790505b509050600080600190505b6001610f39600b611ae7565b01811015610fd75760011515600d600083815260200190815260200160002060009054906101000a900460ff1615151415610fca5760006040518060600160405280838152602001600c6000858152602001908152602001600020548152602001610fa3846114ae565b815250905080848481518110610fb557fe5b60200260200101819052508280600101935050505b8080600101915050610f2d565b50819250505090565b606060078054600181600116156101000203166002900480601f0160208091040260200160405190810160405280929190818152602001828054600181600116156101000203166002900480156110785780601f1061104d57610100808354040283529160200191611078565b820191906000526020600020905b81548152906001019060200180831161105b57829003601f168201915b5050505050905090565b61108a611b7b565b73ffffffffffffffffffffffffffffffffffffffff168273ffffffffffffffffffffffffffffffffffffffff16141561112b576040517f08c379a00000000000000000000000000000000000000000000000000000000081526004018080602001828103825260198152602001807f4552433732313a20617070726f766520746f2063616c6c65720000000000000081525060200191505060405180910390fd5b8060056000611138611b7b565b73ffffffffffffffffffffffffffffffffffffffff1673ffffffffffffffffffffffffffffffffffffffff16815260200190815260200160002060008473ffffffffffffffffffffffffffffffffffffffff1673ffffffffffffffffffffffffffffffffffffffff16815260200190815260200160002060006101000a81548160ff0219169083151502179055508173ffffffffffffffffffffffffffffffffffffffff166111e5611b7b565b73ffffffffffffffffffffffffffffffffffffffff167f17307eab39ab6107e8899845ad3d59bd9653f200f220920489ca2b5937696c318360405180821515815260200191505060405180910390a35050565b611249611243611b7b565b83611c51565b61129e576040517f08c379a0000000000000000000000000000000000000000000000000000000008152600401808060200182810382526031815260200180613ae66031913960400191505060405180910390fd5b6112aa84848484612280565b50505050565b600073ffffffffffffffffffffffffffffffffffffffff163373ffffffffffffffffffffffffffffffffffffffff161415801561132157506112f181610aed565b73ffffffffffffffffffffffffffffffffffffffff163373ffffffffffffffffffffffffffffffffffffffff1614155b61132a57600080fd5b600c60008281526020019081526020016000205434101561134a57600080fd5b600061135582610aed565b90508073ffffffffffffffffffffffffffffffffffffffff166108fc349081150290604051600060405180830381858888f1935050505015801561139d573d6000803e3d6000fd5b506113a9816001611082565b6113b4813384611d45565b6000600d600084815260200190815260200160002060006101000a81548160ff0219169083151502179055508073ffffffffffffffffffffffffffffffffffffffff163373ffffffffffffffffffffffffffffffffffffffff167f0a553f03004ca54c18763b68c9ef162311a3c847d15f2d2e12a39cdf28e966ce8460405161143d9190613640565b60405180910390a33373ffffffffffffffffffffffffffffffffffffffff168173ffffffffffffffffffffffffffffffffffffffff167ff3ecb4dab83f41da3035ff9cb3a2ef0c3027ebb89ae4e4b822d7c109e869a2fc846040516114a29190613640565b60405180910390a35050565b60606114b982611b5e565b61150e576040517f08c379a000000000000000000000000000000000000000000000000000000000815260040180806020018281038252602f815260200180613a96602f913960400191505060405180910390fd5b6000600860008481526020019081526020016000208054600181600116156101000203166002900480601f0160208091040260200160405190810160405280929190818152602001828054600181600116156101000203166002900480156115b75780601f1061158c576101008083540402835291602001916115b7565b820191906000526020600020905b81548152906001019060200180831161159a57829003601f168201915b5050505050905060006115c8610bb3565b90506000815114156115de57819250505061177a565b6000825111156116af5780826040516020018083805190602001908083835b6020831061162057805182526020820191506020810190506020830392506115fd565b6001836020036101000a03801982511681845116808217855250505050505090500182805190602001908083835b60208310611671578051825260208201915060208101905060208303925061164e565b6001836020036101000a038019825116818451168082178552505050505050905001925050506040516020818303038152906040529250505061177a565b806116b9856122f2565b6040516020018083805190602001908083835b602083106116ef57805182526020820191506020810190506020830392506116cc565b6001836020036101000a03801982511681845116808217855250505050505090500182805190602001908083835b60208310611740578051825260208201915060208101905060208303925061171d565b6001836020036101000a03801982511681845116808217855250505050505090500192505050604051602081830303815290604052925050505b919050565b600061178a82611b5e565b6117c9576040517f08c379a00000000000000000000000000000000000000000000000000000000081526004016117c0906135e0565b60405180910390fd5b600c6000838152602001908152602001600020549050919050565b6000600560008473ffffffffffffffffffffffffffffffffffffffff1673ffffffffffffffffffffffffffffffffffffffff16815260200190815260200160002060008373ffffffffffffffffffffffffffffffffffffffff1673ffffffffffffffffffffffffffffffffffffffff16815260200190815260200160002060009054906101000a900460ff16905092915050565b61188182611b5e565b6118c0576040517f08c379a00000000000000000000000000000000000000000000000000000000081526004016118b790613600565b60405180910390fd5b80600c6000848152602001908152602001600020819055505050565b6118e4611b7b565b73ffffffffffffffffffffffffffffffffffffffff16611902610e9a565b73ffffffffffffffffffffffffffffffffffffffff161461198b576040517f08c379a00000000000000000000000000000000000000000000000000000000081526004018080602001828103825260208152602001807f4f776e61626c653a2063616c6c6572206973206e6f7420746865206f776e657281525060200191505060405180910390fd5b600073ffffffffffffffffffffffffffffffffffffffff168173ffffffffffffffffffffffffffffffffffffffff161415611a11576040517f08c379a00000000000000000000000000000000000000000000000000000000081526004018080602001828103825260268152602001806138cc6026913960400191505060405180910390fd5b8073ffffffffffffffffffffffffffffffffffffffff16600a60009054906101000a900473ffffffffffffffffffffffffffffffffffffffff1673ffffffffffffffffffffffffffffffffffffffff167f8be0079c531659141344cd1fd0a4f28419497f9722a3daafe3b4186f6b6457e060405160405180910390a380600a60006101000a81548173ffffffffffffffffffffffffffffffffffffffff021916908373ffffffffffffffffffffffffffffffffffffffff16021790555050565b6001816000016000828254019250508190555050565b600081600001549050919050565b6000611b07836000018360001b612439565b905092915050565b6000611b3b846000018460001b8473ffffffffffffffffffffffffffffffffffffffff1660001b6124a9565b90509392505050565b6000611b56836000018360001b612585565b905092915050565b6000611b74826002611b4490919063ffffffff16565b9050919050565b600033905090565b816004600083815260200190815260200160002060006101000a81548173ffffffffffffffffffffffffffffffffffffffff021916908373ffffffffffffffffffffffffffffffffffffffff160217905550808273ffffffffffffffffffffffffffffffffffffffff16611bf683610aed565b73ffffffffffffffffffffffffffffffffffffffff167f8c5be1e5ebec7d5bd14f71427d1e84f3dd0314c0f7b2291e5b200ac8c7c3b92560405160405180910390a45050565b6000611c4a826000016125a8565b9050919050565b6000611c5c82611b5e565b611cb1576040517f08c379a000000000000000000000000000000000000000000000000000000000815260040180806020018281038252602c81526020018061393c602c913960400191505060405180910390fd5b6000611cbc83610aed565b90508073ffffffffffffffffffffffffffffffffffffffff168473ffffffffffffffffffffffffffffffffffffffff161480611d2b57508373ffffffffffffffffffffffffffffffffffffffff16611d138461076e565b73ffffffffffffffffffffffffffffffffffffffff16145b80611d3c5750611d3b81856117e4565b5b91505092915050565b8273ffffffffffffffffffffffffffffffffffffffff16611d6582610aed565b73ffffffffffffffffffffffffffffffffffffffff1614611dd1576040517f08c379a0000000000000000000000000000000000000000000000000000000008152600401808060200182810382526029815260200180613a6d6029913960400191505060405180910390fd5b600073ffffffffffffffffffffffffffffffffffffffff168273ffffffffffffffffffffffffffffffffffffffff161415611e57576040517f08c379a00000000000000000000000000000000000000000000000000000000081526004018080602001828103825260248152602001806138f26024913960400191505060405180910390fd5b611e628383836125b9565b611e6d600082611b83565b611ebe81600160008673ffffffffffffffffffffffffffffffffffffffff1673ffffffffffffffffffffffffffffffffffffffff1681526020019081526020016000206125be90919063ffffffff16565b50611f1081600160008573ffffffffffffffffffffffffffffffffffffffff1673ffffffffffffffffffffffffffffffffffffffff168152602001908152602001600020611af590919063ffffffff16565b50611f2781836002611b0f9092919063ffffffff16565b50808273ffffffffffffffffffffffffffffffffffffffff168473ffffffffffffffffffffffffffffffffffffffff167fddf252ad1be2c89b69c2b068fc378daa952ba7f163c4a11628f55a4df523b3ef60405160405180910390a4505050565b6000611f9783600001836125d8565b60001c905092915050565b600073ffffffffffffffffffffffffffffffffffffffff168273ffffffffffffffffffffffffffffffffffffffff161415612045576040517f08c379a00000000000000000000000000000000000000000000000000000000081526004018080602001828103825260208152602001807f4552433732313a206d696e7420746f20746865207a65726f206164647265737381525060200191505060405180910390fd5b61204e81611b5e565b156120c1576040517f08c379a000000000000000000000000000000000000000000000000000000000815260040180806020018281038252601c8152602001807f4552433732313a20746f6b656e20616c7265616479206d696e7465640000000081525060200191505060405180910390fd5b6120cd600083836125b9565b61211e81600160008573ffffffffffffffffffffffffffffffffffffffff1673ffffffffffffffffffffffffffffffffffffffff168152602001908152602001600020611af590919063ffffffff16565b5061213581836002611b0f9092919063ffffffff16565b50808273ffffffffffffffffffffffffffffffffffffffff16600073ffffffffffffffffffffffffffffffffffffffff167fddf252ad1be2c89b69c2b068fc378daa952ba7f163c4a11628f55a4df523b3ef60405160405180910390a45050565b61219f82611b5e565b6121f4576040517f08c379a000000000000000000000000000000000000000000000000000000000815260040180806020018281038252602c815260200180613a41602c913960400191505060405180910390fd5b8060086000848152602001908152602001600020908051906020019061221b929190612ddf565b505050565b600080600080612233866000018661265b565b915091508160001c8160001c9350935050509250929050565b600061225f846000018460001b846126f4565b60001c90509392505050565b6000612279826000016127ea565b9050919050565b61228b848484611d45565b612297848484846127fb565b6122ec576040517f08c379a000000000000000000000000000000000000000000000000000000000815260040180806020018281038252603281526020018061389a6032913960400191505060405180910390fd5b50505050565b6060600082141561233a576040518060400160405280600181526020017f30000000000000000000000000000000000000000000000000000000000000008152509050612434565b600082905060005b60008214612364578080600101915050600a828161235c57fe5b049150612342565b60008167ffffffffffffffff8111801561237d57600080fd5b506040519080825280601f01601f1916602001820160405280156123b05781602001600182028036833780820191505090505b50905060006001830390508593505b6000841461242c57600a84816123d157fe5b0660300160f81b828280600190039350815181106123eb57fe5b60200101907effffffffffffffffffffffffffffffffffffffffffffffffffffffffffffff1916908160001a905350600a848161242457fe5b0493506123bf565b819450505050505b919050565b60006124458383612a14565b61249e5782600001829080600181540180825580915050600190039060005260206000200160009091909190915055826000018054905083600101600084815260200190815260200160002081905550600190506124a3565b600090505b92915050565b60008084600101600085815260200190815260200160002054905060008114156125505784600001604051806040016040528086815260200185815250908060018154018082558091505060019003906000526020600020906002020160009091909190915060008201518160000155602082015181600101555050846000018054905085600101600086815260200190815260200160002081905550600191505061257e565b8285600001600183038154811061256357fe5b90600052602060002090600202016001018190555060009150505b9392505050565b600080836001016000848152602001908152602001600020541415905092915050565b600081600001805490509050919050565b505050565b60006125d0836000018360001b612a37565b905092915050565b600081836000018054905011612639576040517f08c379a00000000000000000000000000000000000000000000000000000000081526004018080602001828103825260228152602001806138786022913960400191505060405180910390fd5b82600001828154811061264857fe5b9060005260206000200154905092915050565b600080828460000180549050116126bd576040517f08c379a00000000000000000000000000000000000000000000000000000000081526004018080602001828103825260228152602001806139f36022913960400191505060405180910390fd5b60008460000184815481106126ce57fe5b906000526020600020906002020190508060000154816001015492509250509250929050565b600080846001016000858152602001908152602001600020549050600081141583906127bb576040517f08c379a00000000000000000000000000000000000000000000000000000000081526004018080602001828103825283818151815260200191508051906020019080838360005b83811015612780578082015181840152602081019050612765565b50505050905090810190601f1680156127ad5780820380516001836020036101000a031916815260200191505b509250505060405180910390fd5b508460000160018203815481106127ce57fe5b9060005260206000209060020201600101549150509392505050565b600081600001805490509050919050565b600061281c8473ffffffffffffffffffffffffffffffffffffffff16612b1f565b6128295760019050612a0c565b600061299363150b7a0260e01b61283e611b7b565b888787604051602401808573ffffffffffffffffffffffffffffffffffffffff1681526020018473ffffffffffffffffffffffffffffffffffffffff16815260200183815260200180602001828103825283818151815260200191508051906020019080838360005b838110156128c25780820151818401526020810190506128a7565b50505050905090810190601f1680156128ef5780820380516001836020036101000a031916815260200191505b5095505050505050604051602081830303815290604052907bffffffffffffffffffffffffffffffffffffffffffffffffffffffff19166020820180517bffffffffffffffffffffffffffffffffffffffffffffffffffffffff838183161783525050505060405180606001604052806032815260200161389a603291398773ffffffffffffffffffffffffffffffffffffffff16612b329092919063ffffffff16565b905060008180602001905160208110156129ac57600080fd5b8101908080519060200190929190505050905063150b7a0260e01b7bffffffffffffffffffffffffffffffffffffffffffffffffffffffff1916817bffffffffffffffffffffffffffffffffffffffffffffffffffffffff191614925050505b949350505050565b600080836001016000848152602001908152602001600020541415905092915050565b60008083600101600084815260200190815260200160002054905060008114612b135760006001820390506000600186600001805490500390506000866000018281548110612a8257fe5b9060005260206000200154905080876000018481548110612a9f57fe5b9060005260206000200181905550600183018760010160008381526020019081526020016000208190555086600001805480612ad757fe5b60019003818190600052602060002001600090559055866001016000878152602001908152602001600020600090556001945050505050612b19565b60009150505b92915050565b600080823b905060008111915050919050565b6060612b418484600085612b4a565b90509392505050565b606082471015612ba5576040517f08c379a00000000000000000000000000000000000000000000000000000000081526004018080602001828103825260268152602001806139166026913960400191505060405180910390fd5b612bae85612b1f565b612c20576040517f08c379a000000000000000000000000000000000000000000000000000000000815260040180806020018281038252601d8152602001807f416464726573733a2063616c6c20746f206e6f6e2d636f6e747261637400000081525060200191505060405180910390fd5b6000808673ffffffffffffffffffffffffffffffffffffffff1685876040518082805190602001908083835b60208310612c6f5780518252602082019150602081019050602083039250612c4c565b6001836020036101000a03801982511681845116808217855250505050505090500191505060006040518083038185875af1925050503d8060008114612cd1576040519150601f19603f3d011682016040523d82523d6000602084013e612cd6565b606091505b5091509150612ce6828286612cf2565b92505050949350505050565b60608315612d0257829050612db7565b600083511115612d155782518084602001fd5b816040517f08c379a00000000000000000000000000000000000000000000000000000000081526004018080602001828103825283818151815260200191508051906020019080838360005b83811015612d7c578082015181840152602081019050612d61565b50505050905090810190601f168015612da95780820380516001836020036101000a031916815260200191505b509250505060405180910390fd5b9392505050565b60405180606001604052806000815260200160008152602001606081525090565b828054600181600116156101000203166002900490600052602060002090601f016020900481019282612e155760008555612e5c565b82601f10612e2e57805160ff1916838001178555612e5c565b82800160010185558215612e5c579182015b82811115612e5b578251825591602001919060010190612e40565b5b509050612e699190612e6d565b5090565b5b80821115612e86576000816000905550600101612e6e565b5090565b6000612e9d612e988461368c565b61365b565b905082815260208101848484011115612eb557600080fd5b612ec08482856137c6565b509392505050565b6000612edb612ed6846136bc565b61365b565b905082815260208101848484011115612ef357600080fd5b612efe8482856137c6565b509392505050565b600081359050612f158161381b565b92915050565b600081359050612f2a81613832565b92915050565b600081359050612f3f81613849565b92915050565b600082601f830112612f5657600080fd5b8135612f66848260208601612e8a565b91505092915050565b600082601f830112612f8057600080fd5b8135612f90848260208601612ec8565b91505092915050565b600081359050612fa881613860565b92915050565b600060208284031215612fc057600080fd5b6000612fce84828501612f06565b91505092915050565b60008060408385031215612fea57600080fd5b6000612ff885828601612f06565b925050602061300985828601612f06565b9150509250929050565b60008060006060848603121561302857600080fd5b600061303686828701612f06565b935050602061304786828701612f06565b925050604061305886828701612f99565b9150509250925092565b6000806000806080858703121561307857600080fd5b600061308687828801612f06565b945050602061309787828801612f06565b93505060406130a887828801612f99565b925050606085013567ffffffffffffffff8111156130c557600080fd5b6130d187828801612f45565b91505092959194509250565b600080604083850312156130f057600080fd5b60006130fe85828601612f06565b925050602061310f85828601612f1b565b9150509250929050565b6000806000806080858703121561312f57600080fd5b600061313d87828801612f06565b945050602085013567ffffffffffffffff81111561315a57600080fd5b61316687828801612f6f565b935050604061317787828801612f99565b925050606061318887828801612f1b565b91505092959194509250565b600080604083850312156131a757600080fd5b60006131b585828601612f06565b92505060206131c685828601612f99565b9150509250929050565b6000602082840312156131e257600080fd5b60006131f084828501612f30565b91505092915050565b60006020828403121561320b57600080fd5b600061321984828501612f99565b91505092915050565b60008060006060848603121561323757600080fd5b600061324586828701612f99565b935050602061325686828701612f1b565b925050604061326786828701612f99565b9150509250925092565b6000806040838503121561328457600080fd5b600061329285828601612f99565b92505060206132a385828601612f99565b9150509250929050565b60006132b983836134f8565b905092915050565b6132ca81613752565b82525050565b60006132db826136fc565b6132e5818561371f565b9350836020820285016132f7856136ec565b8060005b85811015613333578484038952815161331485826132ad565b945061331f83613712565b925060208a019950506001810190506132fb565b50829750879550505050505092915050565b61334e81613764565b82525050565b600061335f82613707565b6133698185613730565b93506133798185602086016137d5565b6133828161380a565b840191505092915050565b600061339882613707565b6133a28185613741565b93506133b28185602086016137d5565b6133bb8161380a565b840191505092915050565b60006133d3603183613741565b91507f4552433732314d657461646174613a20507269636520717565727920666f722060008301527f6e6f6e6578697374656e7420746f6b656e0000000000000000000000000000006020830152604082019050919050565b6000613439602e83613741565b91507f4552433732314d657461646174613a20507269636520736574206f66206e6f6e60008301527f6578697374656e7420746f6b656e0000000000000000000000000000000000006020830152604082019050919050565b600061349f602d83613741565b91507f4552433732314d657461646174613a2053616c6520736574206f66206e6f6e6560008301527f78697374656e7420746f6b656e000000000000000000000000000000000000006020830152604082019050919050565b60006060830160008301516135106000860182613548565b5060208301516135236020860182613548565b506040830151848203604086015261353b8282613354565b9150508091505092915050565b613551816137bc565b82525050565b613560816137bc565b82525050565b600060208201905061357b60008301846132c1565b92915050565b6000602082019050818103600083015261359b81846132d0565b905092915050565b60006020820190506135b86000830184613345565b92915050565b600060208201905081810360008301526135d8818461338d565b905092915050565b600060208201905081810360008301526135f9816133c6565b9050919050565b600060208201905081810360008301526136198161342c565b9050919050565b6000602082019050818103600083015261363981613492565b9050919050565b60006020820190506136556000830184613557565b92915050565b6000604051905081810181811067ffffffffffffffff8211171561368257613681613808565b5b8060405250919050565b600067ffffffffffffffff8211156136a7576136a6613808565b5b601f19601f8301169050602081019050919050565b600067ffffffffffffffff8211156136d7576136d6613808565b5b601f19601f8301169050602081019050919050565b6000819050602082019050919050565b600081519050919050565b600081519050919050565b6000602082019050919050565b600082825260208201905092915050565b600082825260208201905092915050565b600082825260208201905092915050565b600061375d8261379c565b9050919050565b60008115159050919050565b60007fffffffff0000000000000000000000000000000000000000000000000000000082169050919050565b600073ffffffffffffffffffffffffffffffffffffffff82169050919050565b6000819050919050565b82818337600083830152505050565b60005b838110156137f35780820151818401526020810190506137d8565b83811115613802576000848401525b50505050565bfe5b6000601f19601f8301169050919050565b61382481613752565b811461382f57600080fd5b50565b61383b81613764565b811461384657600080fd5b50565b61385281613770565b811461385d57600080fd5b50565b613869816137bc565b811461387457600080fd5b5056fe456e756d657261626c655365743a20696e646578206f7574206f6620626f756e64734552433732313a207472616e7366657220746f206e6f6e20455243373231526563656976657220696d706c656d656e7465724f776e61626c653a206e6577206f776e657220697320746865207a65726f20616464726573734552433732313a207472616e7366657220746f20746865207a65726f2061646472657373416464726573733a20696e73756666696369656e742062616c616e636520666f722063616c6c4552433732313a206f70657261746f7220717565727920666f72206e6f6e6578697374656e7420746f6b656e4552433732313a20617070726f76652063616c6c6572206973206e6f74206f776e6572206e6f7220617070726f76656420666f7220616c6c4552433732313a2062616c616e636520717565727920666f7220746865207a65726f20616464726573734552433732313a206f776e657220717565727920666f72206e6f6e6578697374656e7420746f6b656e456e756d657261626c654d61703a20696e646578206f7574206f6620626f756e64734552433732313a20617070726f76656420717565727920666f72206e6f6e6578697374656e7420746f6b656e4552433732314d657461646174613a2055524920736574206f66206e6f6e6578697374656e7420746f6b656e4552433732313a207472616e73666572206f6620746f6b656e2074686174206973206e6f74206f776e4552433732314d657461646174613a2055524920717565727920666f72206e6f6e6578697374656e7420746f6b656e4552433732313a20617070726f76616c20746f2063757272656e74206f776e65724552433732313a207472616e736665722063616c6c6572206973206e6f74206f776e6572206e6f7220617070726f766564a264697066735822122039e74fe21f104adc95f911ffd0f50533c0c10fc32e9baa7414847f70b0c1bd6664736f6c634300070600334552433732314d657461646174613a2055524920736574206f66206e6f6e6578697374656e7420746f6b656e",
  "immutableReferences": {},
  "source": "// SPDX-License-Identifier: MIT\npragma solidity >=0.4.22 <0.9.0;\npragma experimental ABIEncoderV2;\n\nimport \"../node_modules/@openzeppelin/contracts/token/ERC721/ERC721.sol\";\nimport \"../node_modules/@openzeppelin/contracts/access/Ownable.sol\";\nimport \"../node_modules/@openzeppelin/contracts/utils/Counters.sol\";\n\ncontract LVR is ERC721, Ownable {\n    using Counters for Counters.Counter;\n    Counters.Counter private _tokenIds;\n\n    event Bought(address indexed owner,address indexed from, uint256 tokenid);\n    event Sold(address indexed owner, address indexed to, uint256 tokenid);\n\n    // event Sent(address indexed payee, uint256 amount, uint256 balance);\n    // event Received(address indexed payer, uint tokenId, uint256 amount, uint256 balance);\n\n    mapping (uint256 => uint256) private _tokenPrices;\n    mapping (uint256 => bool) private _tokenOnSale;\n\n    struct TokenProps {\n        uint256 id;\n        uint256 price;\n        string uri;\n    }\n\n    constructor() ERC721(\"LVR\", \"LVR\") {\n        _tokenIds.increment();\n\n        // Create unicorn token\n        uint256 newItemId = _tokenIds.current();\n        _mint(msg.sender, newItemId);\n        _setTokenURI(newItemId, \"unicorn\");\n        _tokenOnSale[newItemId] = false;\n    }\n\n    function getAllOnSale () public view virtual returns( TokenProps[] memory ) {\n        TokenProps[] memory tokensOnSale = new TokenProps[](_tokenIds.current());\n        uint256 counter = 0;\n\n        for(uint i = 1; i < _tokenIds.current() + 1; i++) {\n            if(_tokenOnSale[i] == true) {\n                TokenProps memory token = TokenProps(i, _tokenPrices[i], tokenURI(i));\n                tokensOnSale[counter] = token;\n                counter++;\n            }\n        }\n        return tokensOnSale;\n    }\n\n    /**\n     * @dev sets maps token to its price\n     * @param _tokenId uint256 token ID (token number)\n     * @param _sale bool token on sale\n     * @param _price unit256 token price\n     * \n     * Requirements: \n     * `tokenId` must exist\n     */\n    function setTokenSale(uint256 _tokenId, bool _sale, uint256 _price) public {\n        require(_exists(_tokenId), \"ERC721Metadata: Sale set of nonexistent token\");\n        require(_price > 0);\n\n        _tokenOnSale[_tokenId] = _sale;\n        setTokenPrice(_tokenId, _price);\n    }\n\n    /**\n     * @dev sets maps token to its price\n     * @param tokenId uint256 token ID (token number)\n     * @param _price uint256 token price\n     * \n     * Requirements: \n     * `tokenId` must exist\n     */\n    function setTokenPrice(uint256 tokenId, uint256 _price) public {\n        require(_exists(tokenId), \"ERC721Metadata: Price set of nonexistent token\");\n        _tokenPrices[tokenId] = _price;\n    }\n\n    function tokenPrice(uint256 tokenId) public view virtual returns (uint256) {\n        require(_exists(tokenId), \"ERC721Metadata: Price query for nonexistent token\");\n        return _tokenPrices[tokenId];\n    }\n\n    /**\n     * @dev purchase _tokenId\n     * @param _tokenId uint256 token ID (painting number)\n     */\n    function purchaseToken(uint256 _tokenId) public payable {\n        require(msg.sender != address(0) && msg.sender != ownerOf(_tokenId));\n        require(msg.value >= _tokenPrices[_tokenId]);\n        address tokenSeller = ownerOf(_tokenId);\n\n        payable(tokenSeller).transfer(msg.value);\n\n        setApprovalForAll(tokenSeller, true);\n        _transfer(tokenSeller, msg.sender, _tokenId);\n        _tokenOnSale[_tokenId] = false;\n\n        emit Bought(msg.sender, tokenSeller, _tokenId);\n        emit Sold(tokenSeller, msg.sender, _tokenId);\n    }\n\n    function mintCollectable(address _owner, string memory _tokenURI, uint256 _price, bool _sale)\n        public\n        returns (uint256)\n    {\n        require(_price > 0);\n\n        _tokenIds.increment();\n\n        uint256 newItemId = _tokenIds.current();\n        _mint(_owner, newItemId);\n        _setTokenURI(newItemId, _tokenURI);\n        setTokenPrice(newItemId, _price);\n        _tokenOnSale[newItemId] = _sale;\n\n        return newItemId;\n    }\n}",
  "sourcePath": "/Users/paganinisilvio/Desktop/Workspace/LVR/eth/contracts/LVR.sol",
  "compiler": {
    "name": "solc",
    "version": "0.7.6+commit.7338295f.Emscripten.clang"
  },
  "schemaVersion": "3.3.4",
  "updatedAt": "2021-03-10T12:01:00.236Z",
  "networkType": "ethereum",
  "devdoc": {
    "kind": "dev",
    "methods": {
      "approve(address,uint256)": {
        "details": "See {IERC721-approve}."
      },
      "balanceOf(address)": {
        "details": "See {IERC721-balanceOf}."
      },
      "baseURI()": {
        "details": "Returns the base URI set via {_setBaseURI}. This will be automatically added as a prefix in {tokenURI} to each token's URI, or to the token ID if no specific URI is set for that token ID."
      },
      "getApproved(uint256)": {
        "details": "See {IERC721-getApproved}."
      },
      "isApprovedForAll(address,address)": {
        "details": "See {IERC721-isApprovedForAll}."
      },
      "name()": {
        "details": "See {IERC721Metadata-name}."
      },
      "owner()": {
        "details": "Returns the address of the current owner."
      },
      "ownerOf(uint256)": {
        "details": "See {IERC721-ownerOf}."
      },
      "purchaseToken(uint256)": {
        "details": "purchase _tokenId",
        "params": {
          "_tokenId": "uint256 token ID (painting number)"
        }
      },
      "renounceOwnership()": {
        "details": "Leaves the contract without owner. It will not be possible to call `onlyOwner` functions anymore. Can only be called by the current owner. NOTE: Renouncing ownership will leave the contract without an owner, thereby removing any functionality that is only available to the owner."
      },
      "safeTransferFrom(address,address,uint256)": {
        "details": "See {IERC721-safeTransferFrom}."
      },
      "safeTransferFrom(address,address,uint256,bytes)": {
        "details": "See {IERC721-safeTransferFrom}."
      },
      "setApprovalForAll(address,bool)": {
        "details": "See {IERC721-setApprovalForAll}."
      },
      "setTokenPrice(uint256,uint256)": {
        "details": "sets maps token to its price",
        "params": {
          "_price": "uint256 token price  Requirements:  `tokenId` must exist",
          "tokenId": "uint256 token ID (token number)"
        }
      },
      "setTokenSale(uint256,bool,uint256)": {
        "details": "sets maps token to its price",
        "params": {
          "_price": "unit256 token price  Requirements:  `tokenId` must exist",
          "_sale": "bool token on sale",
          "_tokenId": "uint256 token ID (token number)"
        }
      },
      "supportsInterface(bytes4)": {
        "details": "See {IERC165-supportsInterface}. Time complexity O(1), guaranteed to always use less than 30 000 gas."
      },
      "symbol()": {
        "details": "See {IERC721Metadata-symbol}."
      },
      "tokenByIndex(uint256)": {
        "details": "See {IERC721Enumerable-tokenByIndex}."
      },
      "tokenOfOwnerByIndex(address,uint256)": {
        "details": "See {IERC721Enumerable-tokenOfOwnerByIndex}."
      },
      "tokenURI(uint256)": {
        "details": "See {IERC721Metadata-tokenURI}."
      },
      "totalSupply()": {
        "details": "See {IERC721Enumerable-totalSupply}."
      },
      "transferFrom(address,address,uint256)": {
        "details": "See {IERC721-transferFrom}."
      },
      "transferOwnership(address)": {
        "details": "Transfers ownership of the contract to a new account (`newOwner`). Can only be called by the current owner."
      }
    },
    "version": 1
  },
  "userdoc": {
    "kind": "user",
    "methods": {},
    "version": 1
  }
}